:100000000C9434000C9446000C9446000C9446006A
:100010000C9446000C9446000C9446000C94460048
:100020000C9446000C9446000C9446000C94460038
:100030000C9446000C9446000C9448000C94460026
:100040000C9446000C9446000C9446000C94460018
:100050000C9446000C9446000C9446000C94460008
:100060000C9446000C94460011241FBECFEFD8E03C
:10007000DEBFCDBF21E0A0E0B1E001C01D92A43001
:10008000B207E1F70E94C6000C94F1000C94000046
:100090001F921FB61F9211248F939F93AF93BF930C
:1000A0008091000190910101A0910201B0910301A2
:1000B0000196A11DB11D8093000190930101A093B1
:1000C0000201B0930301BF91AF919F918F911F9057
:1000D0001FBE1F90189582E084BD99EF97BD809355
:1000E0006E0093E095BD1092800080938100109285
:1000F0006F0008952FB7F89460910001709101018D
:1001000080910201909103012FBF0895CF93DF9357
:10011000CDB7DEB728970FB6F894DEBF0FBECDBFC0
:1001200069837A838B839C830E947A006D837E83AC
:100130008F8398870E947A002D813E814F81588558
:10014000621B730B840B950B29813A814B815C8177
:10015000621773078407950768F328960FB6F8941B
:10016000DEBF0FBECDBFDF91CF91089540918400D7
:1001700050918500880F991F20918400309185004F
:10018000241B350B28173907B8F30895259A0E94C8
:100190006B007894C3E0D0E285B18D2785B964E621
:1001A00070E080E090E00E94860085B18D2785B9DF
:1001B00064E670E080E090E00E948600C15061F744
:1001C00064EF71E080E090E00E948600C0E285B1BB
:1001D0008C2785B964EF71E080E090E00E94860092
:0601E000F6CFF894FFCFFA
:00000001FF
