:100000000C9434000C9451000C9451000C940A028E
:100010000C9451000C94C9010C9451000C945100A3
:100020000C9451000C9451000C9451000C94350325
:100030000C9451000C9451000C9451000C945100FC
:100040000C9451000C9451000C9451000C945100EC
:100050000C9451000C9451000C9451000C945100DC
:100060000C9451000C94510011241FBECFEFD8E026
:10007000DEBFCDBF12E0A0E0B1E0E4E7F9E102C0ED
:1000800005900D92A431B107D9F722E0A4E1B2E0C6
:1000900001C01D92A934B207E1F70E94EE030C944F
:1000A000B80C0C9400008FB7F894109222021092B2
:1000B0002302109224021092250210921E02109226
:1000C0001F0210922002109221028FBF08951F93E9
:1000D000CF93DF931FB7F894C0918400D09185002F
:1000E0000E946D039B01AC01B19B07C0C430D105D8
:1000F00020F42F5F3F4F4F4F5F4F1FBFA8EEB3E07D
:100100000E94600AD695C7956C0F7D1F811D911DB9
:10011000DF91CF911F910895CF92DF92EF92FF92DE
:100120000F931F93CF93DF93D82FC62F0E946D0399
:100130006B017C0101E010E002C0000F111FCA95A5
:10014000E2F786B190E080239123892B59F00E9439
:100150006D036C197D098E099F096A30710581054F
:10016000910578F388B121E030E0A90102C0440F85
:10017000551FDA95E2F7EA01842B88B90E946700DF
:100180006B017C010E9467006C197D098E099F0933
:100190006A30710581059105A8F388B1C095C8231F
:1001A000C8B90E946D036B017C0186B190E0802389
:1001B0009123892BC9F00E9467006B017C0186B1F5
:1001C00090E080239123892B29F50E9467006C1908
:1001D0007D098E099F0999F02AE330E040E050E064
:1001E0000E943E0AC9010DC00E946D036C197D0971
:1001F0008E099F096430710581059105B0F290E088
:1002000080E0DF91CF911F910F91FF90EF90DF90F1
:10021000CF9008950E9467006C197D098E099F098F
:1002200060347F418105910550F2E9CFEF92FF9252
:100230000F931F93CF93DF93F82EE62E0E948C002E
:10024000EC016E2D8F2D0E948C008C016E2D8F2D58
:100250000E948C000C171D0728F43C2F2D2FE8015D
:10026000032F122F9C010817190708F49801CE01DB
:10027000C217D30708F4C901DF91CF911F910F91E5
:10028000FF90EF900895EF92FF921F93CF93DF932B
:1002900000D000D000D01F92CDB7DEB797FF2BC0A3
:1002A00091958195910921E0E0E03AE0E32EF12C6F
:1002B00011E01E0F41E050E04C0F5D1F4E0F511D2D
:1002C000FA01B7010E942A0A805D8083CB01E12FE9
:1002D000009771F78DE2211127C011111DC02796DB
:1002E0000FB6F894DEBF0FBECDBFDF91CF911F9147
:1002F000FF90EF90089520E00097B1F680E32796F5
:100300000FB6F894DEBF0FBECDBFDF91CF911F9126
:10031000FF90EF900C941B031150E1E0F0E0EC0F24
:10032000FD1FE10FF11D80810E941B03D6CF1F939B
:10033000CF93DF9300D000D000D0CDB7DEB710E070
:100340002AE030E0009761F4111118C026960FB62C
:10035000F894DEBF0FBECDBFDF91CF911F910895FE
:10036000E1E0F0E0EC0FFD1FE10FF11DB9010E948B
:10037000160A805D8083CB011F5FE4CF1150E1E05E
:10038000F0E0EC0FFD1FE10FF11D80810E941B03C7
:10039000DBCF1F920F920FB60F9211244F935F93F2
:1003A0006F937F938F939F93AF93BF9389B19091F6
:1003B0001D0280931D02982797FF1FC087FF1DC055
:1003C0004FEF5FEFBA0182FF04C041E050E060E010
:1003D00070E08091220290912302A0912402B091BA
:1003E0002502840F951FA61FB71F809322029093AA
:1003F0002302A0932402B0932502BF91AF919F9155
:100400008F917F916F915F914F910F900FBE0F90E1
:100410001F9018951F920F920FB60F9211244F93B1
:100420005F936F937F938F939F93AF93BF9383B1AA
:1004300090911C0280931C02982794FF1FC084FF98
:100440001DC041E050E060E070E085FF03C04FEF69
:100450005FEFBA0180911E0290911F02A0912002CD
:10046000B0912102840F951FA61FB71F80931E0213
:1004700090931F02A0932002B0932102BF91AF91ED
:100480009F918F917F916F915F914F910F900FBED0
:100490000F901F901895EAE2F0E08330910540F448
:1004A000880F991FFC01E45FFE4F0190F081E02D61
:1004B00081E090E001C0880F6A95EAF790814130B1
:1004C00019F4892B8083089580958923FBCFEBE273
:1004D000F0E08330910540F4880F991FFC01EA5F3A
:1004E000FE4F0190F081E02D81E090E001C0880F87
:1004F0006A95EAF79081413019F4892B8083089539
:1005000080958923FBCF0C94670221E030E001C085
:10051000220F6A95EAF7E9E2F0E08330910540F4B2
:10052000880F991FFC01E050FF4F0190F081E02DF2
:1005300020830895E9E2F0E08330910540F4880FCC
:10054000991FFC01E050FF4F0190F081E02D808168
:1005500090E002C0959587956A95E2F781700895BD
:10056000FC01EE0FFF1FE80FF91FEE5EFE4F6281E8
:10057000808191810E949A0291E0811190E0892FFF
:10058000089540E063E082E090E00E944B0240E08A
:1005900063E082E090E00E94670240E064E082E075
:1005A00090E00E944B0240E064E082E090E00C9416
:1005B00067028230910510F40C94B00281E0089536
:1005C000CF9390E080E00E94B002C82F81E090E0DD
:1005D0000E94B002982F8C2FCF9108958230910500
:1005E00060F4FC01EE0FFF1FE80FF91FEE5EFE4FF7
:1005F0006281808191810C949A0280E008959B0130
:10060000AC0184E0220F331F441F551F8A95D1F798
:1006100060E074E284EF90E00E943E0A21503109CC
:100620003093C5002093C40088E18093C10086E028
:100630008093C20008959091C00095FFFCCF8093F5
:10064000C6000895CF93DF93EC018991811103C017
:10065000DF91CF9108950E941B03F7CF8091C000D6
:1006600087FFFCCF8091C60008951F920F920FB6AE
:100670000F9211248F939F93AF93BF938091450264
:1006800090914602A0914702B09148020196A11DA7
:10069000B11D8093450290934602A0934702B09308
:1006A0004802BF91AF919F918F910F900FBE0F9015
:1006B0001F901895E1E8F0E088E080838FEC97E0E8
:1006C000909389008093880082E080936F008081FE
:1006D000826080831092800008952FB7F894609113
:1006E00045027091460280914702909148022FBFC7
:1006F00008958F929F92AF92BF92CF92DF92EF9226
:10070000FF926B017C010E946D034B015C010E9412
:100710006D03681979098A099B096C157D058E0599
:100720009F05A8F3FF90EF90DF90CF90BF90AF9020
:100730009F908F9008954091840050918500880F7C
:10074000991F2091840030918500241B350B2817B8
:100750003907B8F308958AB180668AB983EA84BDFF
:1007600083E085BD17BC18BC089588BD089587BD7A
:100770000895CF93C62F289A29982A9A2B980E94D9
:10078000B5038C2FCF910C94B703CF93C62F289A23
:1007900029982A982B9A0E94B5038C2FCF910C94FC
:1007A000B703CF93C62F2898299A2A9A2B980E948C
:1007B000B5038C2FCF910C94B703289829982A98C9
:1007C0002B9880E00E94B50380E00C94B70384B1BD
:1007D0008F6084B90E94AB030C94DD03CF93DF9349
:1007E000CDB7DEB7E3970FB6F894DEBF0FBECDBF2F
:1007F0000E945A0360E875E280E090E00E94FF02E8
:1008000087B1856187B987B1857D87B988B18A7ECF
:1008100088B98AB18B778AB98BB184688BB984B176
:100820008F7C84B985B1806385B980916D008068C3
:1008300080936D0080916B00806180936B0080914C
:10084000680085608093680089B180931D0283B140
:1008500080931C020E94E7038AB1877E8AB98BB11C
:10086000877E8BB9789488E191E00E9422038FE221
:1008700091E00E94220325E02D834FE050E05C834D
:100880004B838FE090E09A83898363E082E00E944B
:1008900016018C0165E084E00E9416019801225047
:1008A00031092B33310510F41A8309839C0122503E
:1008B00031092B33310510F49C838B839D8191503A
:1008C0009D839111E2CF80E491E00E9422030E9477
:1008D0006D036B017C010E9453000E9467006BA3B3
:1008E0007CA38DA39EA3AB81BC81BE83AD832980F5
:1008F0003A802EE130E0398F288F1F8A1E8E4EE11C
:1009000050E05C874B87412C512C320151E05BABAE
:1009100081E0898B1A8A1F8E18A219A21AA21A8E38
:100920001B8E1C8E1D8E1F82188619861A8610E05B
:1009300000E091E09D8704C075016401A1E0AD87EE
:10094000BE8DBF5FBE8FC8010297029708F066C0D8
:100950000230110509F04EC06EE686EE0E94C50316
:100960000E946D034B015C012F81388549855A85B2
:10097000821A930AA40AB50A2FB7F894809122022A
:1009800090912302A0912402B091250240911E0271
:1009900050911F0260912002709121022FBF38EC0C
:1009A00083169104A104B10458F2B7FF07C0B095B3
:1009B000A095909581959F4FAF4FBF4F77FF07C090
:1009C00070956095509541955F4F6F4F7F4F840FA5
:1009D000951FA61FB71FC797A105B10584F444E86A
:1009E000841643E09406A104B10408F4A9CF88E575
:1009F00091E007C066EE86E90E94D103B1CF86E49C
:100A000091E00E9422030E946D036F83788789879B
:100A10009A870E94530004E010E092CF0430110541
:100A200089F562ED82ED0E94B9030E946D032F816A
:100A3000388549855A85621B730B840B950B6A3F79
:100A400071058105910508F47BCF0E946D036B0150
:100A50007C010E946D036F83788789879A878EE671
:100A600091E00E94220344E650E05C874B8705E05A
:100A700010E01D8684E190E09E838D8344E1242E66
:100A8000312C5ECF0530110509F0BEC063E082E075
:100A90000E948C005C0165E084E00E948C0095015E
:100AA000225031092B33310508F415019C012250E5
:100AB00031092B33310510F49E838D839A89B1015E
:100AC000911103C0AD81BE81BD0190E080E00E9424
:100AD000940B20E030E048E451E40E947A0A20E0E0
:100AE00030E040E850E40E944B0C4B015C0120E0F8
:100AF00030E040E752E40E94460C18160CF47DC02A
:100B000020E030E040E752ECC501B4010E94E70A62
:100B100087FF06C0812C912C30E7A32E32ECB32E38
:100B2000BA89B11104C0B7FAB094B7F8B094C5014E
:100B3000B4010E945E0B24EB30E0261B370B2F3FE5
:100B4000310519F014F02FEF30E02C33310514F497
:100B50002CE330E0CB018C549F4F8F3F910519F06F
:100B600014F08FEF90E08C33910514F48CE390E057
:100B7000622F0E94B9030E946D032F813885498539
:100B80005A85621B730B840B950B68357240810587
:100B9000910508F4D5CE1092180210921902109205
:100BA0001A0210921B021092140210921502109257
:100BB0001602109217020E9453000E946D036B01EF
:100BC0007C010E946D036F8F78A389A39AA30E9472
:100BD00067006BA37CA38DA39EA388E791E00E948E
:100BE0002203412C512C320141E04BAB51E0598B97
:100BF00010E000E081E08D87A3CE812C912C20E7CE
:100C0000A22E22E4B22E8CCF9F8991118CC063E07A
:100C100082E00E948C009A838983BF898B2F90E0A9
:100C2000019663E070E00E94160A8F8B288D398D43
:100C30002115310529F02F3F310511F03C872B8715
:100C400089819A810297CB97A0F449815A81CA0180
:100C5000821993092416350628F0C101A981BA81A9
:100C60008A1B9B0B079718F0BD85B11102C0298024
:100C70003A808B819C810297CB97C8F42D813E816D
:100C80004B815C81CA01821B930B2417350730F01E
:100C90008D819E81AB81BC818A1B9B0B079718F0CD
:100CA000BD85B11104C02B813C813E832D830E9400
:100CB0006D034B015C016C197D098E099F090E942F
:100CC000940B2FE632E143E85AE30E944B0C6D8708
:100CD0007E878F87988B2AE037ED43EA5BE30E949B
:100CE000E70A87FF08C08AE097EDA3EABBE38D8798
:100CF0009E87AF87B88B0E9467002BA13CA14DA1B6
:100D00005EA1621B730B840B950B603F794482409C
:100D10009105D0F462ED82ED0E94B9037501640182
:100D200041E04D870DCEAF89A13039F465E084E014
:100D30000E948C009C838B8370CF61E080E00E94D6
:100D40008C00998F888F69CF99B189B193FF4AC080
:100D500084FF48C08B859C8584978B3D910508F066
:100D600041C089819A810197CC97E0F18B819C8168
:100D70000197CC97B8F10E94DD038FE891E00E94C3
:100D800022038091440290E00097B1F480E30E9436
:100D90001B0387E991E00E9422031982809144029B
:100DA000A981A81760F085E591E00E94220387EAF7
:100DB00091E00E942203FFCF0E949701EACF598160
:100DC000552321F084EA91E00E9422038981E82FD3
:100DD000F0E0EA5DFD4F80810E941B0399819F5FD7
:100DE0009983DCCF0E946D032F8D38A149A15AA1B0
:100DF000621B730B840B950B643F71408105910559
:100E000008F478C083E20115110509F075C04B851F
:100E10005C858417150608F473C00E946D036A8F01
:100E20007B8F8C8F9D8F8AEB91E00E942203412C57
:100E3000512C32010E946D036B017C012A8D3B8D88
:100E40004C8D5D8DC21AD30AE40AF50A0E94670030
:100E500039B141E04B8B232F287033FD1B8A49B1F8
:100E600011E0342F307144FD10E05989AB895A13D9
:100E700082C0BBA9B1137FC0411451046104710445
:100E800041F4611571058105910509F477C02B01C5
:100E90003C016419750986099709603878438140D7
:100EA000910508F46BC0332309F486C2211196C062
:100EB000E0914402EE3148F481E08E0F80934402C9
:100EC000F0E0EA5DFD4F8CE480830E9453000E94B5
:100ED0006D036F83788789879A878DEC91E00E94F4
:100EE00022031BAB7501640151E0598B1A8A03E0A0
:100EF00010E080CE8CE087CF0130110509F49ACF45
:100F0000B10190E080E00E94940B6B017C014D8167
:100F10005E81BA0190E080E00E94940B9B01AC01DD
:100F2000C701B6010E947A0A6B8B7C8B8D8B9E8BDE
:100F300020E030E040E05FE30E94460C18160CF41D
:100F400090C020E030E040E05FEB6B897C898D89C8
:100F50009E890E94E70AC12CD12C760187FF8DC0A3
:100F600020E030E040E05FE36B897C898D899E89D9
:100F70000E947B0A80C0412C512C320125ECC21604
:100F800029E0D206E104F10408F43EC289B14C9B89
:100F900027C0E0914402EE3148F481E08E0F809347
:100FA0004402F0E0EA5DFD4F8CE480830E94530030
:100FB0000E946D036F83788789879A8785EC91E01B
:100FC0000E9422031BAB3B89398B75016401412CC4
:100FD000512C32011A8A03E010E0A2CE1B8ACECF38
:100FE00083FF26C0E0914402EE3148F481E08E0F89
:100FF00080934402F0E0EA5DFD4F82E580830E9429
:1010000053000E946D036F83788789879A8786EDE6
:1010100091E00E9422031BAB5B89598B750164012F
:10102000412C512C320181E08A8B02E010E081CC0E
:1010300062E382E30E94B90387EE91E00E942203FB
:101040000E946D036A8F7B8F8C8F9D8F1BABAB894A
:10105000A98B75016401412C512C320101E010E093
:10106000D0C120E030E040E05FE36B897C898D896E
:101070009E890E947A0A6B017C0120E030E040EEFC
:1010800050E4C701B6010E944B0C6FA378A789A753
:101090009AA7209118023091190240911A0250919A
:1010A0001B022BA73CA74DA75EA72AE939E949E90E
:1010B0005EE36BA57CA58DA59EA50E944B0C2FA180
:1010C00038A549A55AA50E947B0A6FA778AB89ABC2
:1010D0009AAB20E030E046E952E40E94460C87FDDE
:1010E00009C020E030E0A901C701B6010E94460C0A
:1010F00018165CF120E030E046E952EC6FA578A9C3
:1011000089A99AA90E94E70A18164CF020E030E05D
:10111000A901C701B6010E94E70A87FD16C0A70111
:1011200096016D857E858F8598890E944B0C2BA535
:101130003CA54DA55EA50E947B0A609318027093A2
:10114000190280931A0290931B0220E030E048E4D9
:1011500052E4609118027091190280911A029091E4
:101160001B020E94460C181664F480E090E0A8E48C
:10117000B2E48093180290931902A0931A02B093DC
:101180001B0220E030E048E452EC609118027091BC
:10119000190280911A0290911B020E94E70A87FFB0
:1011A0000CC080E090E0A8E4B2EC80931802909329
:1011B0001902A0931A02B0931B02209114023091DD
:1011C00015024091160250911702C701B6010E9404
:1011D0007A0A2D853E854F8558890E94EC0A6D87D5
:1011E0007E878F87988BC0921402D0921502E0926E
:1011F0001602F09217022AE939E949E95EE36091A3
:1012000018027091190280911A0290911B020E949B
:101210004B0C2FA138A549A55AA50E947B0A6B014A
:101220007C012AE939E949E95EE36D857E858F8590
:1012300098890E944B0C9B01AC01C701B6010E942A
:101240007B0A6B017C0120E030E046E952E40E9419
:10125000460C1816DCF020E030E046E952ECC701FD
:10126000B6010E94E70A87FF06C0C12CD12C96E97F
:10127000E92E92ECF92E0130110579F44B855C854D
:101280006BE94331510508F562E81FC0C12CD12C30
:1012900086E9E82E82E4F82EEECF8B859C8562ED00
:1012A0008634910590F464E18F31910570F09C01D2
:1012B0002E51310946E9429FC001439F900D1124F0
:1012C00068E270E00E94160A645CA62FB0E0BE8758
:1012D000AD87C701B6010E945E0B6B016D857E85EF
:1012E0006C197D096F3F710519F014F06FEF70E014
:1012F0006C33710514F46CE370E08D859E858C0D64
:101300009D1D8F3F910519F014F08FEF90E08C3305
:10131000910514F48CE390E00E94B9038E8D6AE08D
:101320000E940A0A911108CB88EF91E00E942203E3
:10133000C1010E9443018BEF91E00E9422038D8145
:101340009E810E9443018FEF91E00E9422036B89EE
:101350007C898D899E890E945E0BCB010E9443018E
:1013600083E092E00E942203C6010E94430187E0CD
:1013700092E00E9422038B859C850E9443018BE0B2
:1013800092E00E942203C8010E9443018FE092E094
:101390000E9422038091440290E0009751F480E380
:1013A0000E941B0385E591E00E9422037501640100
:1013B00028C00E949701F6CF222309F4DFCDE091E7
:1013C0004402EE3148F481E08E0F80934402F0E055
:1013D000EA5DFD4F82E580830E9453000E946D0309
:1013E0006F83788789879A878EED91E00E94220328
:1013F0001BAB9B89998B75016401A1E0AA8B02E06C
:1014000010E0B1E0BD879CCA1BAB3B89398B01E082
:1014100010E076CD991B79E004C0991F961708F06B
:10142000961B881F7A95C9F780950895AA1BBB1B48
:1014300051E107C0AA1FBB1FA617B70710F0A61BD4
:10144000B70B881F991F5A95A9F780959095BC01F5
:10145000CD01089597FB072E16F4009407D077FD71
:1014600009D00E94160A07FC05D03EF4909581959C
:101470009F4F0895709561957F4F0895A1E21A2EB0
:10148000AA1BBB1BFD010DC0AA1FBB1FEE1FFF1F28
:10149000A217B307E407F50720F0A21BB30BE40B78
:1014A000F50B661F771F881F991F1A9469F76095BF
:1014B0007095809590959B01AC01BD01CF01089579
:1014C0000E946B0AA59F900DB49F900DA49F800D64
:1014D000911D11240895A29FB001B39FC001A39F45
:1014E000700D811D1124911DB29F700D811D11245D
:1014F000911D08955058BB27AA270E94920A0C9468
:101500000C0C0E94FE0B38F00E94050C20F039F400
:101510009F3F19F426F40C94FB0B0EF4E095E7FBC7
:101520000C94F50BE92F0E941D0C58F3BA176207B3
:1015300073078407950720F079F4A6F50C943F0C07
:101540000EF4E0950B2EBA2FA02D0B01B9019001DE
:101550000C01CA01A0011124FF27591B99F0593F22
:1015600050F4503E68F11A16F040A22F232F342F6A
:101570004427585FF3CF469537952795A795F040B8
:101580005395C9F77EF41F16BA0B620B730B840BCD
:10159000BAF09150A1F0FF0FBB1F661F771F881F85
:1015A000C2F70EC0BA0F621F731F841F48F48795DD
:1015B00077956795B795F7959E3F08F0B0CF9395CF
:1015C000880F08F09927EE0F9795879508950E9448
:1015D000D10B08F481E008950E94000B0C940C0CD0
:1015E0000E94050C58F00E94FE0B40F029F45F3F6A
:1015F00029F00C94F50B51110C94400C0C94FB0B3E
:101600000E941D0C68F39923B1F3552391F3951BA8
:10161000550BBB27AA2762177307840738F09F5F13
:101620005F4F220F331F441FAA1FA9F335D00E2E80
:101630003AF0E0E832D091505040E695001CCAF7ED
:101640002BD0FE2F29D0660F771F881FBB1F2617B0
:1016500037074807AB07B0E809F0BB0B802DBF0187
:10166000FF2793585F4F3AF09E3F510578F00C9456
:10167000F50B0C94400C5F3FE4F3983ED4F3869551
:1016800077956795B795F7959F5FC9F7880F911D77
:101690009695879597F90895E1E0660F771F881F63
:1016A000BB1F621773078407BA0720F0621B730B16
:1016B000840BBA0BEE1F88F7E09508950E94650B26
:1016C0006894B1110C94400C08950E94250C88F088
:1016D0009F5798F0B92F9927B751B0F0E1F0660FF6
:1016E000771F881F991F1AF0BA95C9F714C0B13037
:1016F00091F00E943F0CB1E008950C943F0C672FCD
:10170000782F8827B85F39F0B93FCCF38695779565
:101710006795B395D9F73EF490958095709561954E
:101720007F4F8F4F9F4F0895E89409C097FB3EF479
:1017300090958095709561957F4F8F4F9F4F99231E
:10174000A9F0F92F96E9BB279395F695879577959C
:101750006795B795F111F8CFFAF4BB0F11F460FF5C
:101760001BC06F5F7F4F8F4F9F4F16C0882311F0B4
:1017700096E911C0772321F09EE8872F762F05C0C8
:10178000662371F096E8862F70E060E02AF09A9563
:10179000660F771F881FDAF7880F9695879597F958
:1017A0000895990F0008550FAA0BE0E8FEEF1616F2
:1017B0001706E807F907C0F012161306E407F50745
:1017C00098F0621B730B840B950B39F40A2661F0B9
:1017D000232B242B252B21F408950A2609F4A1405C
:1017E000A6958FEF811D811D089597F99F6780E869
:1017F00070E060E008959FEF80EC089500240A9463
:101800001616170618060906089500240A941216DB
:101810001306140605060895092E0394000C11F40E
:10182000882352F0BB0F40F4BF2B11F460FF04C0BB
:101830006F5F7F4F8F4F9F4F089557FD9058440F14
:10184000551F59F05F3F71F04795880F97FB991F1F
:1018500061F09F3F79F087950895121613061406DC
:10186000551FF2CF4695F1DF08C016161706180669
:10187000991FF1CF86957105610508940895E89444
:10188000BB2766277727CB0197F908950E94D10BD4
:1018900008F48FEF08950E945E0C0C940C0C0E94CB
:1018A000FE0B38F00E94050C20F0952311F00C94EB
:1018B000F50B0C94FB0B11240C94400C0E941D0C96
:1018C00070F3959FC1F3950F50E0551F629FF00193
:1018D000729FBB27F00DB11D639FAA27F00DB11DAC
:1018E000AA1F649F6627B00DA11D661F829F222735
:1018F000B00DA11D621F739FB00DA11D621F839FBC
:10190000A00D611D221F749F3327A00D611D231F91
:10191000849F600D211D822F762F6A2F11249F57DF
:1019200050409AF0F1F088234AF0EE0FFF1FBB1FE2
:10193000661F771F881F91505040A9F79E3F5105A1
:1019400080F00C94F50B0C94400C5F3FE4F3983E50
:10195000D4F3869577956795B795F795E7959F5F4B
:10196000C1F7FE2B880F911D9695879597F90895DD
:04197000F894FFCF19
:10197400230026002900250028002B00240027002E
:101984002A0002000302000457616C6C2D666F6C20
:101994006C6F7765722072656164792E0D0A00435D
:1019A400616C6962726174696E672E2E2E0D0A0075
:1019B400476F2E0D0A005475726E20646F6E652099
:1019C40028656E63290D0A005475726E20646F6E6B
:1019D40065202874696D656F7574290D0A00526558
:1019E400616C69676E0D0A00526573756D696E6787
:1019F4002077616C6C2D666F6C6C6F770D0A0054E8
:101A040075726E733A20000D0A53657175656E63C5
:101A1400653A20002C200053544F503A206F7065D3
:101A24006E2073706163650D0A00417070726F619E
:101A340063680D0A0054494D454F5554205475723E
:101A44006E204C0D0A0054494D454F555420547591
:101A5400726E20520D0A0054494D454F5554204290
:101A640041434B55500D0A004C3D0020523D00208F
:101A7400653D0020573D0020463D0020533D002099
:041A8400543D0000CD
:00000001FF
