:100000000C9434000C9451000C9451000C94660232
:100010000C9451000C942B020C9451000C94510040
:100020000C9451000C9451000C9451000C94A203B8
:100030000C9451000C9451000C9451000C945100FC
:100040000C9451000C9451000C9451000C945100EC
:100050000C9451000C9451000C9451000C945100DC
:100060000C9451000C94510011241FBECFEFD8E026
:10007000DEBFCDBF12E0A0E0B1E0E4E2FBE102C0F0
:1000800005900D92A839B107D9F722E0A8E9B2E0AE
:1000900001C01D92AA3BB207E1F70E9459040C94DB
:1000A000900D0C94000021E030E0A90101C0440F44
:1000B0006A95EAF7642F41E157E226B130E0262342
:1000C0002115310519F04150504029F548B121E082
:1000D000F90101C0EE0F8A95EAF78E2F4E2B48B931
:1000E000F5E3FA95F1F7000098B18095892388B976
:1000F00022EA3FE086B190E08623009789F080E015
:1001000026B130E02623232BA9F46AE370E00E9495
:10011000E90ACB01089595E09A95F1F70000CDCF5B
:1001200045E04A95F1F700002150304019F780E092
:1001300090E0089555E05A95F1F70000853DE4E11F
:100140009E07A9F30196DCCF0F931F93CF93DF9304
:1001500000D000D0CDB7DEB789836A830E945300F8
:100160008B839C8364E170E080E090E00E94E40374
:100170006A8189810E9453008C0164E170E080E013
:1001800090E00E94E4036A8189810E9453002B81E0
:100190003C810217130730F0302F212F0B811C8177
:1001A0003B832C839C018B819C818217930708F4ED
:1001B0009C01C9012017310708F4C8010F900F9066
:1001C0000F900F90DF91CF911F910F9108951F9382
:1001D000CF93DF9300D000D000D0CDB7DEB79C0125
:1001E00010E0EAE0F0E0892B61F480E30F900F90DB
:1001F0000F900F900F900F90DF91CF911F910C9463
:100200008703C901BF010E94E90ADE011196A10F0F
:10021000B11D1F5F805D8C93C9019B010A9788F710
:1002200011110AC00F900F900F900F900F900F9028
:10023000DF91CF911F9108951150FE013196E10F8A
:10024000F11D80810E948703EBCFCF92DF92EF9266
:10025000FF920F93CF93DF9300D000D000D00F9286
:10026000CDB7DEB789839A836B837C834D835E83AE
:100270002F8386E091E00E948E0389819A810E94FB
:10028000E7008DE091E00E948E038B819C810E94AB
:10029000E7008DE091E00E948E038D819E810E9497
:1002A000E7008DE091E00E948E038F81805D0E94C7
:1002B00087038DE091E00E948E0380E3800F0E940F
:1002C00087038DE091E00E948E03C7010E948E0398
:1002D0008DE091E00E948E03C6010E948E0384E3AC
:1002E00091E027960FB6F894DEBF0FBECDBFDF9129
:1002F000CF910F91FF90EF90DF90CF900C948E03F1
:100300000F931F93CF93DF93CDB7DEB72C970FB624
:10031000F894DEBF0FBECDBF611571058105910553
:100320003CF50E944A0B01E010E02AE030E040E09A
:1003300050E00E94330BFE013196E10FF11D1F5F6B
:10034000605D6083B901CA0100977040604069F741
:100350008DE2011123C011111BC02C960FB6F89429
:10036000DEBF0FBECDBFDF91CF911F910F910895DA
:1003700011F000E0D9CF80E32C960FB6F894DEBFE1
:100380000FBECDBFDF91CF911F910F910C948703CA
:100390001150FE013196E10FF11D80810E9487030B
:1003A000DACF1F93CF93DF9300D000D000D00F920D
:1003B000CDB7DEB700971CF591958195910921E0A5
:1003C00010E0EAE0F0E0BF010E94FD0ADE011196B4
:1003D000A10FB11D1F5F805D8C93CB01009799F732
:1003E0008DE2211121C0111119C027960FB6F89482
:1003F000DEBF0FBECDBFDF91CF911F91089511F0E9
:1004000020E0DECF80E327960FB6F894DEBF0FBE64
:10041000CDBFDF91CF911F910C9487031150FE0146
:100420003196E10FF11D80810E948703DCCF8FB7E9
:10043000F8941092B2021092B3021092B402109289
:10044000B5021092AE021092AF021092B00210925A
:10045000B1028FBF08954F934FB74F935F936F9340
:100460007F938F939F93AF93BF9389B19091AD0288
:100470008093AD029827FAF487FF1DC06FEF7FEFDE
:10048000AB0182FF04C041E050E060E070E0809189
:10049000B2029091B302A091B402B091B502840F60
:1004A000951FA61FB71F8093B2029093B302A0932B
:1004B000B402B093B502BF91AF919F918F917F919C
:1004C0006F915F914F914FBF4F9118954F934FB7D9
:1004D0004F935F936F937F938F939F93AF93BF934C
:1004E00083B19091AC028093AC02982795FF1FC016
:1004F00085FF1DC06FEF7FEFAB0184FF04C041E0BB
:1005000050E060E070E08091AE029091AF02A09167
:10051000B002B091B102840F951FA61FB71F809340
:10052000AE029093AF02A093B002B093B102BF911C
:10053000AF919F918F917F916F915F914F914FBF3D
:100540004F911895E4E2F0E0019718F081F0EAE2AB
:10055000F0E081E090E09C0101C0220F6A95EAF78B
:10056000622F8081413031F4822B80830895E7E24D
:10057000F0E0EFCF6095682360830895E5E2F0E056
:10058000019718F081F0EBE2F0E081E090E09C014F
:1005900001C0220F6A95EAF7622F8081413031F461
:1005A000822B80830895E8E2F0E0EFCF6095682326
:1005B000608308950C94BE0221E001C0220F6A9569
:1005C000EAF7E3E2F0E0019718F021F0E9E2F0E069
:1005D00020830895E6E2F0E0FBCFE3E2F0E001974C
:1005E00018F059F0E9E2F0E0808190E002C09595C2
:1005F00087956A95E2F781700895E6E2F0E0F4CF1E
:10060000FC01EE0FFF1FE80FF91FE050FF4F628162
:10061000808191810E94ED02982F81E0911180E00C
:1006200008950F931F93CF93DF9300D00F92CDB710
:10063000DEB780E091E08A839B83EA81FB81F281CF
:10064000F983EA81FB810081118140E06981C80161
:100650000E94A20240E06981C8010E94BE028A8114
:100660009B8103968A839B838650914031F70F903C
:100670000F900F90DF91CF911F910F9108958230CD
:10068000910510F40C94000381E00895CF93DF935B
:100690000F92CDB7DEB780E090E00E94000389831F
:1006A00081E090E00E940003982F89810F90DF91F4
:1006B000CF9108958230910560F4FC01EE0FFF1F89
:1006C000E80FF91FE050FF4F6281808191810C9407
:1006D000ED0280E008959B01AC0184E0220F331FFE
:1006E000441F551F8A95D1F760E074E284EF90E0D3
:1006F0000E94110B215031093093C5002093C40092
:1007000088E18093C10086E08093C20008959091B3
:10071000C00095FFFCCF8093C6000895CF93DF9370
:10072000EC018881811103C0DF91CF91089521965A
:100730000E948703F6CF8091C00087FFFCCF809195
:10074000C60008951F921FB61F9211248F939F9386
:10075000AF93BF938091B6029091B702A091B80277
:10076000B091B9020196A11DB11D8093B60290937C
:10077000B702A093B802B093B902BF91AF919F9115
:100780008F911F901FBE1F901895E1E8F0E088E060
:1007900080838FEC97E0909389008093880082E0BB
:1007A00080936F0080818260808310928000089522
:1007B0002FB7F8946091B6027091B7028091B80299
:1007C0009091B9022FBF0895CF93DF93CDB7DEB7D5
:1007D00028970FB6F894DEBF0FBECDBF69837A832A
:1007E0008B839C830E94D8036D837E838F8398873D
:1007F0000E94D8032D813E814F815885621B730B67
:10080000840B950B29813A814B815C8162177307B8
:100810008407950768F328960FB6F894DEBF0FBEDD
:10082000CDBFDF91CF910895409184005091850014
:10083000880F991F2091840030918500241B350B6F
:1008400028173907B8F308958AB180668AB983EA10
:1008500084BD83E085BD17BC18BC089588BD08958C
:1008600087BD0895CF93DF930F92CDB7DEB769832D
:10087000289A29982A9A2B980E942E0489810F90F1
:10088000DF91CF910C9430040C9432040C94320418
:10089000289829982A982B9880E00E942E0480E0BE
:1008A0000C94300484B18F6084B90E9424040C94A9
:1008B0004804CDB7DEB7EA970FB6F894DEBF0FBE97
:1008C000CDBF0E94C50360E875E280E090E00E9421
:1008D0006B0387B1856187B987B1857D87B988B199
:1008E0008A7E88B98AB18B778AB98BB184688BB9D3
:1008F00084B18F7C84B985B1806385B980916D00A6
:10090000806880936D0080916B00806380936B00A2
:100910008091680085608093680089B18093AD0202
:1009200083B18093AC020E9452048AB1877E8AB957
:100930008BB1877E8BB9789464EF71E080E090E0B2
:100940000E94E4038FE091E00E948E0386E291E032
:100950000E948E0325E029837FE0472E512C12014F
:1009600063E082E00E94A4008C0165E084E00E94C4
:10097000A4009801225031092B33310508F41801E5
:100980009C01225031092B33310508F42C0162E31C
:1009900070E080E090E00E94E403398131503983B7
:1009A0003111DECF87E391E00E948E030E94D803CD
:1009B00069877A878B879C870E9417024AE048AB39
:1009C0008EE18F83188691E09DA7A1E0AFA71982E1
:1009D0001A821B821C8219A61AA61BA61CA61B8A99
:1009E0001C8A1D8A1E8A1DA21EA21FA218A61D8275
:1009F0001E82AD81BE81149709F055C066E986E973
:100A00000E9432040E94D8032DA13EA14FA158A5F7
:100A1000621B730B840B950B6A3F71058105910571
:100A200068F31092A8021092A9021092AA021092E2
:100A3000AB021092A4021092A5021092A60210928C
:100A4000A7021092A0021092A1021092A20210928C
:100A5000A30210929C0210929D0210929E0210928C
:100A60009F02109298021092990210929A0210928C
:100A70009B020E9417020E94D80369837A838B83AA
:100A80009C830E94D80369A77AA78BA79CA70E9482
:100A9000D80389E491E00E948E0331E03DA741E054
:100AA0004FA71D821E8289849A84AB84BC8463E034
:100AB00082E00E94A4008C016EE170E080E090E092
:100AC0000E94E40365E084E00E94A40089879A877D
:100AD0006AE070E080E090E00E94E40361E080E082
:100AE0000E945300009711F08F839887C8010297E6
:100AF000CB9760F4C801821993092016310618F0CB
:100B0000C101801B910B079708F4180189859A850C
:100B10000297CB9760F489859A854816590608F0A4
:100B20005BC084199509079710F449845A840E9480
:100B3000D80369877A878B879C878FB7F894209131
:100B4000B2023091B3024091B4025091B50229AB88
:100B50003AAB4BAB5CAB2091AE023091AF0240910F
:100B6000B0025091B1022DAB3EAB4FAB58AF8FBF2F
:100B70000E94170238A93115A9F1315038AB66E946
:100B800086E90E94320435CF2D813E812230310525
:100B900009F01CC166E484EB0E94440432E03D830A
:100BA0001E820E94D803681979098A099B096C364C
:100BB00072408105910540F38DE391E00E948E0320
:100BC0000E94D8036DA37EA38FA398A70E9417024B
:100BD00084E08D831E820DCFC201A985BA858A1B50
:100BE0009B0BA1CF44274B99439551E045274A8B56
:100BF00088274C9983958527898BC101019720E02F
:100C00004B9B03C022274C992395CC9728F1C20116
:100C10000197CC9708F18F8198854F97803E910579
:100C2000D8F42115C9F060E080E00E94320450E65B
:100C3000C52E51E0D52E69E6E62E61E0F62E098933
:100C40002A894F815885B201C1010E9425018EE693
:100C500091E00E948E03CDCE0E94D80329A53AA52B
:100C60004BA55CA5621B730B840B950B643F714015
:100C70008105910508F07DC08CE04D815E81452B9A
:100C800041F5AF81B8858A171B0608F423C10E947D
:100C9000D8036B8B7C8B8D8B9E8B0E94D8030E941C
:100CA000D80369837A838B839C8330E8C32E31E039
:100CB000D32E4CE8E42E41E0F42E09892A894F8195
:100CC0005885B201C1010E94250185E991E00E9489
:100CD0008E030E94D8036B017C010E94D803F9B1F6
:100CE00011E0F3FD1127E9B101E0E4FD0027BFA504
:100CF0001B1303C02DA50217F1F10E94D8036983CD
:100D00007A838B839C830DA71FA78B899C89AD89D0
:100D1000BE89C81AD90AEA0AFB0A95ECC91699E0F5
:100D2000D906E104F10408F4C2C089B14C9B75C036
:100D30000E94D8034B015C010E94D8030E94D80393
:100D400069837A838B839C83B4EDCB2EB1E0DB2E59
:100D500010EBE12E11E0F12E09892A894F81588587
:100D6000B201C1010E94250185EE91E00E948E032F
:100D70002DC08EE182CF29813A814B815C81621B3B
:100D8000730B840B950B683771058105910508F489
:100D9000BCCFE4FF22C00E94D8034B015C010E943B
:100DA000D80390EAC92E91E0D92E20EBE22E21E063
:100DB000F22E09892A894F815885B201C1010E940A
:100DC00025018DEE91E00E948E031DA664EB86E462
:100DD0000E94460443E04D83E3CEF3FF96CF0E948A
:100DE000D8034B015C010E94D8030AEBC02E01E03E
:100DF000D02E89ECE82E81E0F82E09892A894F81CE
:100E00005885B201C1010E9425018EE092E00E9446
:100E10008E031FA631E03DA7BDCE83FF21C00E94F7
:100E2000D8034B015C010E94D8030E94D803698358
:100E30007A838B839C83F6EFCF2EF1E0DF2EA9EC33
:100E4000EA2EA1E0FA2E09892A894F815885B2013C
:100E5000C1010E94250186E092E00E948E039ACE95
:100E600062E382E30E94320477E1C72E72E0D72E5C
:100E7000EAE2EE2EE2E0FE2E09892A894F815885AA
:100E8000B201C1010E94250181E392E00E948E031C
:100E90000E94D8036B8B7C8B8D8B9E8B18AA8984C8
:100EA0009A84AB84BC84A1E0AD831E8200CE52E460
:100EB000C52E52E0D52E6CE8E62E61E0F62E0989AB
:100EC0002A894F815885B201C1010E942501B1E0F4
:100ED000BD831E8269857A858B859C856819790911
:100EE0008A099B090E946C0C2FE632E143E85AE321
:100EF0000E94230D162FC72E8F8F9EA72AE037ED55
:100F000043EA5BE30E94BF0B87FF07C01AE047ED8F
:100F1000C42E23EA2F8F3BE33EA7B10180E090E08F
:100F20000E946C0C4B015C01B20180E090E00E94D9
:100F30006C0C9B01AC01B401C5010E94520B4B012A
:100F40005C0120E030E040EC5FE30E941E0D1816CB
:100F50000CF0C8C220E030E040EC5FE3B401C50112
:100F60000E94520B762E072F8AAF99AF2AE939E9F2
:100F700049E95FE3672D702F8AAD99AD0E94230D7B
:100F80006F8B7BA38CA39B8FD090A802E090A902CB
:100F9000F090AA026090AB022AE037ED43E25DE3F5
:100FA0006D2D7E2D8F2D962D0E94230D2F893BA117
:100FB0004CA15B8D0E94530B6D877E878F87988B2A
:100FC00020E030E04CE052E40E94BF0B87FF2AC0D3
:100FD00020E030E04CE052EC6D857E858F8598896D
:100FE0000E941E0D1816F4F4272D302F4AAD59AD6E
:100FF000612F7C2D8F8D9EA50E94230D9B01AC013E
:101000006D2D7E2D8F2D962D0E94530BD62EE72E03
:10101000F82E692E6093A8027093A9028093AA0209
:101020009093AB0220E030E048EC51E46D2D7E2D32
:101030008F2D962D0E941E0DA8ECB1E4181674F0A9
:1010400020E030E048EC51EC6D2D7E2D8F2D962D5B
:101050000E94BF0B87FF0AC0A8ECB1EC1092A80257
:101060001092A902A093AA02B093AB022091A4020D
:101070003091A5024091A6025091A702672D702FD2
:101080008AAD99AD0E94520B212F3C2D4F8D5EA54C
:101090000E94C40B26E636E646EE5EE30E94230D70
:1010A0006D877E878F87988B2DEC3CEC4CE05FE35F
:1010B0006091A0027091A1028091A2029091A3027E
:1010C0000E94230D9B01AC016D857E858F859889DB
:1010D0000E94530B6D877E878F87988B6093A00249
:1010E0007093A1028093A2029093A302AAADB9AD1E
:1010F0007092A4020093A502A093A602B093A70247
:101100002AE037ED43E25DE36091A8027091A90205
:101110008091AA029091AB020E94230D2F893BA1DE
:101120004CA15B8D0E94530B6F8B788F898F9A8FA8
:101130002AE939E949E95EE36D857E858F859889DD
:101140000E94230D9B01AC016F89788D898D9A8D4A
:101150000E94530BF62E072F8BA39CA320E030E0B8
:101160004CE052E40E941E0D18160CF4E9C120E078
:1011700030E04CE052EC6F2D702F8BA19CA10E94AF
:10118000BF0B87FF06C0F12C00E04CE04BA352ECF4
:101190005CA3FD860F8B40E050E09A01B401C501CD
:1011A0000E94BF0B87FFD3C1B401C501905820E056
:1011B00030E040EC5FE30E94BF0B18160CF4CFC187
:1011C00069A97AA98BA99CA90E946E0C6B8F7C8F50
:1011D0008D8F9E8F6DA97EA98FA998AD0E946E0CF0
:1011E0009B01AC016B8D7C8D8D8D9E8D0E94520B71
:1011F0006B8F7C8F8D8F9E8F9B01AC01612F7C2D1F
:101200008F8D9EA50E94230D20919C0230919D02FE
:1012100040919E0250919F020E94530BF62E072F81
:101220008AAF99AF20E030E040E252E40E941E0D08
:1012300018160CF48FC120E030E040E252EC6F2D24
:10124000702F8AAD99AD0E94BF0B87FF06C0F12CAD
:1012500000E0A0E2AAAFB2ECB9AF3F2D202F9AADCB
:1012600089ADF32E022F9AAF89AFAAADB9AD3093F5
:101270009C0220939D02A0939E02B0939F02209116
:1012800098023091990240919A0250919B026B8D85
:101290007C8D8D8D9E8D0E94520B212F3C2D4F8D6C
:1012A0005EA50E94C40B6F8F78A389A39AA32B8D90
:1012B0003C8D4D8D5E8D2093980230939902409322
:1012C0009A0250939B0240E050E09A016F2D702FDC
:1012D0008AAD99AD0E94230D6B017C012DEC3CEC95
:1012E0004CE45FE36B8D7C8D8D8D9E8D0E94230D74
:1012F0009B01AC01B601C7010E94530B6B017C013D
:101300002DEC3CEC4CEC5DE36F8D78A189A19AA1AA
:101310000E94230D9B01AC01B601C7010E94530B33
:10132000762E072F8F8F9B8F20E030E040E451E432
:101330000E941E0D18160CF427C120E030E040E496
:1013400051EC672D702F8F8D9B8D0E94BF0B87FFF7
:1013500006C0712C00E030E43F8F41EC4B8F602ED3
:10136000AD81BE81AB2B09F016C12AE4C22E22E06A
:10137000D22E35E5E32E32E0F32E09892A894F81FA
:101380005885B201C1010E9425012D853F894BA1DD
:101390005CA1672D762D8F8D9B8D0E94530B562F50
:1013A000472F382F292F06E910E0652F742F832F40
:1013B000922F0E94360C7801E60EF71EB3EDEB1665
:1013C000F1040CF4F8C092EDE92EF12C061B170B7A
:1013D000033D11050CF4F7C002ED10E0602F8E2DD7
:1013E0000E94320480E792E00E948E03C1010E94B5
:1013F000D1018EE592E00E948E03C2010E94D101CC
:1014000082E692E00E948E038F8198850E94D1012E
:1014100086E692E00E948E03B401C5010E94360C5C
:10142000CB010E94D1018AE692E00E948E036D8575
:101430007F898BA19CA10E94360CCB010E94D10117
:101440008EE692E00E948E0369A97AA98BA99CA9D5
:101450000E94800183E792E00E948E036DA97EA91D
:101460008FA998AD0E94800188E792E00E948E03C8
:10147000672D762D8F8D9B8D0E94360CCB010E949F
:10148000D1018CE792E00E948E03C7010E94D10136
:1014900081E892E00E948E03C8010E94D10186E893
:1014A00092E00E948E0388274B99839531E0832731
:1014B00090E00E94D1018CE892E00E948E03882780
:1014C0004C99839541E0842790E00E94D10182E904
:1014D00092E00E948E038D819E810E94D10184E35F
:1014E00091E0B7CB20E030E040EC5FEBB401C50108
:1014F0000E94BF0B87FF09C020E030E040EC5FE3B3
:10150000B401C5010E94530B2DCD2AE939E949E503
:101510005FE36091A8027091A9028091AA02909164
:10152000AB020E94230D6093A8027093A9028093DE
:10153000AA029093AB02712C00E01AAE19AE16CD40
:101540001D861F8A8CE08BA392E49CA324CEB40159
:10155000C5012DCE20E030E082E490E282CE1092F0
:101560009C0210929D0210929E0210929F02109275
:1015700098021092990210929A0210929B02612C8A
:10158000712C1F8E1B8EECCE612C712C50E45F8F62
:1015900081E48B8FE5CE2D853F894BA15CA1672D22
:1015A000762D8F8D9B8D0E94530B562F472F382FF2
:1015B000292F0EE6F9CE2CE3E216F1040CF006CF4B
:1015C0008CE3E82E02CF0C3311050CF007CF0CE3AF
:1015D00004CFAA1BBB1B51E107C0AA1FBB1FA61744
:1015E000B70710F0A61BB70B881F991F5A95A9F7CC
:1015F00080959095BC01CD01089597FB072E16F4B8
:10160000009407D077FD09D00E94E90A07FC05D0B5
:101610003EF4909581959F4F0895709561957F4F09
:101620000895A1E21A2EAA1BBB1BFD010DC0AA1F23
:10163000BB1FEE1FFF1FA217B307E407F50720F03B
:10164000A21BB30BE40BF50B661F771F881F991FB6
:101650001A9469F760957095809590959B01AC01FF
:10166000BD01CF010895052E97FB1EF400940E9442
:101670004A0B57FD07D00E94110B07FC03D04EF414
:101680000C944A0B50954095309521953F4F4F4F04
:101690005F4F089590958095709561957F4F8F4F1E
:1016A0009F4F08955058BB27AA270E946A0B0C949D
:1016B000E40C0E94D60C38F00E94DD0C20F039F4C6
:1016C0009F3F19F426F40C94D30C0EF4E095E7FB3D
:1016D0000C94CD0CE92F0E94F50C58F3BA17620751
:1016E00073078407950720F079F4A6F50C94170D7D
:1016F0000EF4E0950B2EBA2FA02D0B01B90190012D
:101700000C01CA01A0011124FF27591B99F0593F70
:1017100050F4503E68F11A16F040A22F232F342FB8
:101720004427585FF3CF469537952795A795F04006
:101730005395C9F77EF41F16BA0B620B730B840B1B
:10174000BAF09150A1F0FF0FBB1F661F771F881FD3
:10175000C2F70EC0BA0F621F731F841F48F487952B
:1017600077956795B795F7959E3F08F0B0CF93951D
:10177000880F08F09927EE0F9795879508950E9496
:10178000A90C08F481E008950E94D80B0C94E40C95
:101790000E94DD0C58F00E94D60C40F029F45F3F07
:1017A00029F00C94CD0C51110C94180D0C94D30C01
:1017B0000E94F50C68F39923B1F3552391F3951B1F
:1017C000550BBB27AA2762177307840738F09F5F62
:1017D0005F4F220F331F441FAA1FA9F335D00E2ECF
:1017E0003AF0E0E832D091505040E695001CCAF73C
:1017F0002BD0FE2F29D0660F771F881FBB1F2617FF
:1018000037074807AB07B0E809F0BB0B802DBF01D5
:10181000FF2793585F4F3AF09E3F510578F00C94A4
:10182000CD0C0C94180D5F3FE4F3983ED4F38695ED
:1018300077956795B795F7959F5FC9F7880F911DC5
:101840009695879597F90895E1E0660F771F881FB1
:10185000BB1F621773078407BA0720F0621B730B64
:10186000840BBA0BEE1F88F7E09508950E943D0C9B
:101870006894B1110C94180D08950E94FD0C88F025
:101880009F5798F0B92F9927B751B0F0E1F0660F44
:10189000771F881F991F1AF0BA95C9F714C0B13085
:1018A00091F00E94170DB1E008950C94170D672F69
:1018B000782F8827B85F39F0B93FCCF386957795B4
:1018C0006795B395D9F73EF490958095709561959D
:1018D0007F4F8F4F9F4F0895E89409C097FB3EF4C8
:1018E00090958095709561957F4F8F4F9F4F99236D
:1018F000A9F0F92F96E9BB279395F69587957795EB
:101900006795B795F111F8CFFAF4BB0F11F460FFAA
:101910001BC06F5F7F4F8F4F9F4F16C0882311F002
:1019200096E911C0772321F09EE8872F762F05C016
:10193000662371F096E8862F70E060E02AF09A95B1
:10194000660F771F881FDAF7880F9695879597F9A6
:101950000895990F0008550FAA0BE0E8FEEF161640
:101960001706E807F907C0F012161306E407F50793
:1019700098F0621B730B840B950B39F40A2661F007
:10198000232B242B252B21F408950A2609F4A140AA
:10199000A6958FEF811D811D089597F99F6780E8B7
:1019A00070E060E008959FEF80EC089500240A94B1
:1019B0001616170618060906089500240A9412162A
:1019C0001306140605060895092E0394000C11F45D
:1019D000882352F0BB0F40F4BF2B11F460FF04C00A
:1019E0006F5F7F4F8F4F9F4F089557FD9058440F63
:1019F000551F59F05F3F71F04795880F97FB991F6E
:101A000061F09F3F79F0879508951216130614062A
:101A1000551FF2CF4695F1DF08C0161617061806B7
:101A2000991FF1CF86957105610508940895E89492
:101A3000BB2766277727CB0197F908950E94A90C49
:101A400008F48FEF08950E94360D0C94E40C0E9468
:101A5000D60C38F00E94DD0C20F0952311F00C9488
:101A6000CD0C0C94D30C11240C94180D0E94F50C81
:101A700070F3959FC1F3950F50E0551F629FF001E1
:101A8000729FBB27F00DB11D639FAA27F00DB11DFA
:101A9000AA1F649F6627B00DA11D661F829F222783
:101AA000B00DA11D621F739FB00DA11D621F839F0A
:101AB000A00D611D221F749F3327A00D611D231FE0
:101AC000849F600D211D822F762F6A2F11249F572E
:101AD00050409AF0F1F088234AF0EE0FFF1FBB1F31
:101AE000661F771F881F91505040A9F79E3F5105F0
:101AF00080F00C94CD0C0C94180D5F3FE4F3983EED
:101B0000D4F3869577956795B795F795E7959F5F99
:101B1000C1F7FE2B880F911D9695879597F908952B
:041B2000F894FFCF67
:101B24000200030200045B4C4F475D20002C005769
:101B3400616C6C2D666F6C6C6F7765722072656179
:101B440064792E0D0A0043616C6962726174696E76
:101B5400672E2E2E0D0A00476F2E0D0A0054757243
:101B64006E20646F6E650D0A00526573756D696E43
:101B7400672077616C6C2D666F6C6C6F770D0A0053
:101B8400414C4C5F4F50454E0053544F5000414C14
:101B94004C204F50454E202D2053544F500D0A00D9
:101BA40046524F4E545F434C4F53450041505052A0
:101BB4004F41434800417070726F6163680D0A00C1
:101BC40049525F52494748545F535441424C45007F
:101BD4005455524E5F4C4546540049525F4C45465D
:101BE400545F535441424C45005455524E5F524940
:101BF4004748540054494D454F55545F49525F522C
:101C0400494748540054494D454F55542054757222
:101C14006E20520D0A0054494D454F55545F4952A8
:101C24005F4C4546540054494D454F555420547516
:101C3400726E204C0D0A00424F54485F57414C4C81
:101C4400535F54494D454F5554004241434B555001
:101C54000054494D454F5554204241434B55500D76
:101C64000A00574149545F4952005049445F464F66
:101C74004C4C4F570053545241494748540020524A
:101C84003D0020463D0020653D0020573D00204595
:101C94004C3D002045523D0020453D00204C533D25
:101CA400002052533D002049524C3D0020495252DD
:081CB4003D002053543D0000E7
:00000001FF
