:100000000C9434000C9451000C9451000C94EF01AA
:100010000C9451000C94AE010C9451000C945100BE
:100020000C9451000C9451000C9451000C9451000C
:100030000C9451000C9451000C941A030C94510030
:100040000C9451000C9451000C9451000C945100EC
:100050000C9451000C9451000C9451000C945100DC
:100060000C9451000C94510011241FBECFEFD8E026
:10007000DEBFCDBF11E0A0E0B1E0E4E6F5E102C0F3
:1000800005900D92A23AB107D9F721E0A2EAB1E0BA
:1000900001C01D92A43CB207E1F70E94C1030C9479
:1000A000B00A0C9400008FB7F8941092BC01109223
:1000B000BD011092BE011092BF011092B8011092C2
:1000C000B9011092BA011092BB018FBF08958F92AF
:1000D0009F92AF92BF92EF92FF920F931F93CF9395
:1000E000DF93CDB7DEB72C970FB6F894DEBF0FBE07
:1000F000CDBF97FF3EC090958095709561957F4FDD
:100100008F4F9F4FEE24E39400E02AE0822E912C43
:10011000A12CB12CFF24F394F00E21E030E02C0F41
:100120003D1F200F311D8901A50194010E94530834
:10013000605DF8016083B901CA010F2D6115710579
:100140008105910539F78DE2E11034C0F1102AC024
:100150002C960FB6F894DEBF0FBECDBFDF91CF91C6
:100160001F910F91FF90EF90BF90AF909F908F9055
:100170000895E12C611571058105910529F680E34B
:100180002C960FB6F894DEBF0FBECDBFDF91CF9196
:100190001F910F91FF90EF90BF90AF909F908F9025
:1001A0000C940003FA94E1E0F0E0EC0FFD1FEF0D7A
:1001B000F11D80810E940003C9CFEF92FF921F932F
:1001C000CF93DF9300D000D000D01F92CDB7DEB721
:1001D00097FF2BC091958195910921E0E0E03AE0ED
:1001E000E32EF12C11E01E0F41E050E04C0F5D1F9B
:1001F0004E0F511DFA01B7010E941D08805D8083DA
:10020000CB01E12F009771F78DE2211127C0111169
:100210001DC027960FB6F894DEBF0FBECDBFDF918D
:10022000CF911F91FF90EF90089520E00097B1F6D5
:1002300080E327960FB6F894DEBF0FBECDBFDF91E7
:10024000CF911F91FF90EF900C9400031150E1E0CB
:10025000F0E0EC0FFD1FE10FF11D80810E94000313
:10026000D6CF48B121E030E0F90102C0EE0FFF1F08
:100270008A95E2F7CF014E2B48B9F5E3FA95F1F7ED
:10028000000098B18095892388B9A90102C0440F64
:10029000551F6A95E2F722EA3FE086B190E0842399
:1002A0009523892B71F090E080E026B130E0242383
:1002B0003523232B81F467E270E00E940908CB010B
:1002C000089585E08A95F1F700002150310929F75A
:1002D00090E080E00895E5E0EA95F1F70000853DC3
:1002E000F4E19F07A9F30196E0CFEF92FF920F93FD
:1002F0001F93CF93DF93F82EE62E0E943101EC017D
:1003000064E170E080E090E00E945A036E2D8F2D32
:100310000E9431018C0164E170E080E090E00E9475
:100320005A036E2D8F2D0E9431010C171D0728F4E2
:100330003C2F2D2FE801032F122F9C0108171907BE
:1003400008F49801CE01C217D30708F4C901DF9160
:10035000CF911F910F91FF90EF9008951F920F92F0
:100360000FB60F9211244F935F936F937F938F93E8
:100370009F93AF93BF9389B19091B7018093B701D9
:10038000982797FF1FC087FF1DC04FEF5FEFBA018F
:1003900082FF04C041E050E060E070E08091BC0169
:1003A0009091BD01A091BE01B091BF01840F951F36
:1003B000A61FB71F8093BC019093BD01A093BE01FF
:1003C000B093BF01BF91AF919F918F917F916F913A
:1003D0005F914F910F900FBE0F901F9018951F9235
:1003E0000F920FB60F9211244F935F936F937F93E9
:1003F0008F939F93AF93BF9383B19091B6018093F6
:10040000B601982795FF1FC085FF1DC04FEF5FEF16
:10041000BA0184FF04C041E050E060E070E08091E8
:10042000B8019091B901A091BA01B091BB01840FBC
:10043000951FA61FB71F8093B8019093B901A09391
:10044000BA01B093BB01BF91AF919F918F917F9102
:100450006F915F914F910F900FBE0F901F90189565
:10046000EAE2F0E08330910540F4880F991FFC0127
:10047000E35FFE4F0190F081E02D81E090E001C04C
:10048000880F6A95EAF79081413019F4892B8083AF
:10049000089580958923FBCFEBE2F0E0833091054E
:1004A00040F4880F991FFC01E95FFE4F0190F08135
:1004B000E02D81E090E001C0880F6A95EAF7908115
:1004C000413019F4892B8083089580958923FBCFCF
:1004D0000C944C0221E030E001C0220F6A95EAF74B
:1004E000E9E2F0E08330910540F4880F991FFC01A8
:1004F000EF5FFE4F0190F081E02D20830895E9E247
:10050000F0E08330910540F4880F991FFC01EF5F04
:10051000FE4F0190F081E02D808190E002C0959522
:1005200087956A95E2F781700895FC01EE0FFF1F31
:10053000E80FF91FED5EFE4F6281808191810E947C
:100540007F0291E0811190E0892F089540E063E0FF
:1005500082E090E00E94300240E063E082E090E0C0
:100560000E944C0240E064E082E090E00E94300291
:1005700040E064E082E090E00C944C02823091050F
:1005800010F40C94950281E00895CF9390E080E000
:100590000E949502C82F81E090E00E949502982F5A
:1005A0008C2FCF9108958230910560F4FC01EE0FFD
:1005B000FF1FE80FF91FED5EFE4F62818081918180
:1005C0000C947F0280E008959B01AC0184E0220F2F
:1005D000331F441F551F8A95D1F760E074E284EF02
:1005E00090E00E943108215031093093C5002093DA
:1005F000C40088E18093C10086E08093C200089522
:100600009091C00095FFFCCF8093C6000895CF93D2
:10061000DF93EC018991811103C0DF91CF9108959F
:100620000E940003F7CF8091C00087FFFCCF80912C
:10063000C60008951F920F920FB60F9211248F9348
:100640009F93AF93BF938091C0019091C101A091FE
:10065000C201B091C3010196A11DB11D8093C001DB
:100660009093C101A093C201B093C301BF91AF9118
:100670009F918F910F900FBE0F901F90189582E061
:1006800084BD99EF97BD80936E0093E095BD109265
:1006900080008093810010926F0008952FB7F89426
:1006A0006091C0017091C1018091C2019091C3011C
:1006B0002FBF08958F929F92AF92BF92CF92DF92F9
:1006C000EF92FF926B017C010E944E034B015C0193
:1006D0000E944E03681979098A099B096C157D05EA
:1006E0008E059F05A8F3FF90EF90DF90CF90BF900D
:1006F000AF909F908F900895409184005091850015
:10070000880F991F2091840030918500241B350BA0
:1007100028173907B8F308958AB188648AB983EA3B
:100720008093B00084E08093B1001092B3001092E7
:10073000B40008958093B40008958093B3000895A1
:10074000CF93C62F289A29982A9A2B980E949A0309
:100750008C2FCF910C949D030C94A0030C94A003B8
:10076000289829982A982B9880E00E949A0380E084
:100770000C949D0384B18F6084B90E948C030C9407
:10078000B003CF93DF93CDB7DEB7A1970FB6F89440
:10079000DEBF0FBECDBF0E943F0360E875E280E080
:1007A00090E00E94E40287B1846187B987B1877DB8
:1007B00087B988B18B7E88B98AB18B778AB98BB1BA
:1007C00084688BB984B18F7C84B985B1806385B925
:1007D00080916D00806880936D0080916B008063D4
:1007E00080936B008091680085608093680089B178
:1007F0008093B70183B18093B6010E94BA037894C5
:1008000064EF71E080E090E00E945A0389E191E09A
:100810000E94070384E391E00E94070385E591E0CD
:100820000E94070315E02FE030E0398728876FE04A
:10083000262E312C63E082E00E9475017C0165E088
:1008400084E00E9475019701225031092B33310554
:1008500008F417019C01225031092B33310510F4A3
:100860009987888762E370E080E090E00E945A03F5
:10087000115001F78EE691E00E940703C101E0E00C
:100880002AE030E011E01E0F41E050E04C0F5D1F08
:100890004E0F511DFA01B9010E940908805D808345
:1008A000CB01E12F009771F71111ABC089E791E0FF
:1008B0000E940703888599852AE030E001E0010F56
:1008C000E1E0F0E0EC0FFD1FE10FF11DB9010E9426
:1008D0000908805D8083CB01102F009779F7011103
:1008E0009BC08BE691E00E9407030E944E036B01C0
:1008F0007C010E94530063E082E00E9475018C013C
:1009000065E084E00E9475019801225031092B3383
:10091000310568F49801221933092016310618F0C0
:100920009101201B310B2730310508F418019C017F
:10093000225031092B33310588F4A885B9859C01F3
:100940002A1B3B0BA817B90720F028853985281BDF
:10095000390B2730310510F4998788870E944E03A0
:100960006A8B7B8B8C8B9D8B6C197D098E099F0903
:100970000E948C092FE632E143E85AE30E94430AC1
:100980006E877F87888B998B2AE037ED43EA5BE39C
:100990000E94DF0887FF08C02AE037ED43EA5BE3E7
:1009A0002E873F87488B598B8FB7F8942091BC01D5
:1009B0003091BD014091BE015091BF012E8B3F8B04
:1009C000488F598F2091B8013091B9014091BA01F7
:1009D0005091BB012A8F3B8F4C8F5D8F8FBF0E9440
:1009E000530080910001882311F181508093000110
:1009F00066E986E90E94A003CA88DB88EC88FD8846
:100A00007ACF1150E1E0F0E0EC0FFD1FE10FF11D96
:100A100080810E94000348CF0150E1E0F0E0EC0F3C
:100A2000FD1FE00FF11D80810E94000358CFB1012E
:100A300090E080E00E948C096B017C01488559851B
:100A4000BA0190E080E00E948C099B01AC01C701D3
:100A5000B6010E9472086A877B878C879D8720E099
:100A600030E040EC5FE30E943E0A18160CF05EC2D4
:100A700020E030E040EC5FE36A857B858C859D85D6
:100A80000E9472086B017C012AE939E949E95FE3B8
:100A9000C701B6010E94430A6E8F7F8F88A399A376
:100AA0008090B2019090B301A090B401B090B501D4
:100AB0002AE037ED43E25DE3C501B4010E94430A39
:100AC0002E8D3F8D48A159A10E9473082B013C0136
:100AD00020E030E04CE052E40E94DF0887FF1EC0B7
:100AE00020E030E04CE052ECC301B2010E943E0A2B
:100AF0001816A4F4A70196016E857F8588899989C7
:100B00000E94430AA50194010E9473086093B201F8
:100B10007093B3018093B4019093B50120E030E06D
:100B200048EC51E46091B2017091B3018091B4013D
:100B30009091B5010E943E0A181664F480E090E09E
:100B4000A8ECB1E48093B2019093B301A093B401F7
:100B5000B093B50120E030E048EC51EC6091B20177
:100B60007091B3018091B4019091B5010E94DF08AA
:100B700087FF0CC080E090E0A8ECB1EC8093B2015C
:100B80009093B301A093B401B093B5012091AE014D
:100B90003091AF014091B0015091B101C701B60150
:100BA0000E9472082E853F85488959890E94E40871
:100BB00026E636E646EE5EE30E94430A4B015C0100
:100BC0002DEC3CEC4CE05FE36091AA017091AB012D
:100BD0008091AC019091AD010E94430A9B01AC0150
:100BE000C501B4010E9473084B015C018092AA0107
:100BF0009092AB01A092AC01B092AD01C092AE0157
:100C0000D092AF01E092B001F092B1012AE037ED4D
:100C100043E25DE36091B2017091B3018091B40150
:100C20009091B5010E94430A2E8D3F8D48A159A194
:100C30000E9473086B017C012AE939E949E95EE306
:100C4000C501B4010E94430A9B01AC01C701B60172
:100C50000E9473082B013C0120E030E04CE052E49C
:100C60000E943E0A18160CF492C120E030E04CE0DD
:100C700052ECC301B2010E94DF0887FD8FC120E062
:100C800030E0A9016A857B858C859D850E94DF08FF
:100C900087FF8BC16A857B858C859D85905820E078
:100CA00030E040EC5FE30E94DF0818160CF48FC1BF
:100CB0006E897F89888D998D0E948E096B017C01D8
:100CC0006A8D7B8D8C8D9D8D0E948E099B01AC0160
:100CD000C701B6010E9472086B017C01AC019B0147
:100CE0006E857F85888999890E94430A2091A60193
:100CF0003091A7014091A8015091A9010E94730869
:100D00004B015C0120E030E040E252E40E943E0AE8
:100D100018160CF44FC18092A6019092A701A092E0
:100D2000A801B092A90120E030E040E252EC6091CD
:100D3000A6017091A7018091A8019091A9010E943C
:100D4000DF0887FF0CC080E090E0A0E2B2EC809367
:100D5000A6019093A701A093A801B093A9012091A7
:100D6000A2013091A3014091A4015091A501C701B6
:100D7000B6010E9472082E853F85488959890E94D4
:100D8000E4084B015C01C092A201D092A301E09261
:100D9000A401F092A50120E030E0A9016091A60134
:100DA0007091A7018091A8019091A9010E94430A26
:100DB0006E877F87888B998B2DEC3CEC4CE45FE34E
:100DC000C701B6010E94430A9B01AC016E857F8575
:100DD000888999890E9473086B017C012DEC3CEC99
:100DE0004CEC5DE3C501B4010E94430A9B01AC01D8
:100DF000C701B6010E9473086B017C0120E030E05E
:100E000040E451E40E943E0A18160CF4F4C020E0BD
:100E100030E040E451ECC701B6010E94DF0887FDD5
:100E2000F1C0A3019201C701B6010E9473080E949C
:100E300056095B0156E9A50EB11CA3EDAA16B10433
:100E40001CF092EDA92EB12CBCE3AB16B1041CF43E
:100E50008CE3A82EB12C06E910E0061B170B033D0E
:100E6000110514F002ED10E00C33110514F40CE33D
:100E700010E0602F8A2D0E94A0038CE891E00E9470
:100E80000703C1010E94DD008EE791E00E94070385
:100E9000888599850E94DD0082E891E00E94070321
:100EA0006A857B858C859D850E945609CB010E94B1
:100EB000DD0086E891E00E940703C301B2010E94B1
:100EC0005609CB010E94DD008AE891E00E940703E9
:100ED0006E897F89888D998D0E9467008FE891E0E7
:100EE0000E9407036A8D7B8D8C8D9D8D0E9467000B
:100EF00084E991E00E940703C701B6010E945609E8
:100F0000CB010E94DD0088E991E00E940703C50142
:100F10000E94DD008DE991E00E940703C8010E9454
:100F2000DD008BE691E00E94070366CD20E030E013
:100F300040EC5FEB6A857B858C859D850E94DF0890
:100F400087FF0BC020E030E040EC5FE36A857B85E3
:100F50008C859D850E94730895CD2AE939E949E57C
:100F60005FE36091B2017091B3018091B4019091FF
:100F7000B5010E94430A6093B2017093B30180935C
:100F8000B4019093B501C12CD12C76017DCD412CBB
:100F9000512C5CE0652E52E4752E71CE412C512C03
:100FA0004CE0642E42EC742E6ACE6A857B858C857B
:100FB0009D8575CE80E090E0A0E2B2E48093A6012A
:100FC0009093A701A093A801B093A901ACCE109271
:100FD000A6011092A7011092A8011092A9011092E7
:100FE000A2011092A3011092A4011092A501C12C9C
:100FF000D12C760116CFC12CD12C30E4E32E31E474
:10100000F32E0FCFC12CD12C20E4E22E21ECF22EB6
:1010100008CFAA1BBB1B51E107C0AA1FBB1FA61705
:10102000B70710F0A61BB70B881F991F5A95A9F791
:1010300080959095BC01CD01089597FB072E16F47D
:10104000009407D077FD09D00E94090807FC05D05D
:101050003EF4909581959F4F0895709561957F4FCF
:101060000895A1E21A2EAA1BBB1BFD010DC0AA1FE9
:10107000BB1FEE1FFF1FA217B307E407F50720F001
:10108000A21BB30BE40BF50B661F771F881F991F7C
:101090001A9469F760957095809590959B01AC01C5
:1010A000BD01CF010895052E97FB1EF400940E9408
:1010B0006A0857FD07D00E94310807FC03D04EF4A0
:1010C0000C946A0850954095309521953F4F4F4FAD
:1010D0005F4F089590958095709561957F4F8F4FE4
:1010E0009F4F08955058BB27AA270E948A080C9446
:1010F000040A0E94F60938F00E94FD0920F039F434
:101100009F3F19F426F40C94F3090EF4E095E7FBE5
:101110000C94ED09E92F0E94150A58F3BA176207DB
:1011200073078407950720F079F4A6F50C94370A25
:101130000EF4E0950B2EBA2FA02D0B01B9019001F2
:101140000C01CA01A0011124FF27591B99F0593F36
:1011500050F4503E68F11A16F040A22F232F342F7E
:101160004427585FF3CF469537952795A795F040CC
:101170005395C9F77EF41F16BA0B620B730B840BE1
:10118000BAF09150A1F0FF0FBB1F661F771F881F99
:10119000C2F70EC0BA0F621F731F841F48F48795F1
:1011A00077956795B795F7959E3F08F0B0CF9395E3
:1011B000880F08F09927EE0F9795879508950E945C
:1011C000C90908F481E008950E94F8080C94040A03
:1011D0000E94FD0958F00E94F60940F029F45F3F93
:1011E00029F00C94ED0951110C94380A0C94F30970
:1011F0000E94150A68F39923B1F3552391F3951BC7
:10120000550BBB27AA2762177307840738F09F5F27
:101210005F4F220F331F441FAA1FA9F335D00E2E94
:101220003AF0E0E832D091505040E695001CCAF701
:101230002BD0FE2F29D0660F771F881FBB1F2617C4
:1012400037074807AB07B0E809F0BB0B802DBF019B
:10125000FF2793585F4F3AF09E3F510578F00C946A
:10126000ED090C94380A5F3FE4F3983ED4F3869579
:1012700077956795B795F7959F5FC9F7880F911D8B
:101280009695879597F90895E1E0660F771F881F77
:10129000BB1F621773078407BA0720F0621B730B2A
:1012A000840BBA0BEE1F88F7E09508950E945D0944
:1012B0006894B1110C94380A08950E941D0A88F0B0
:1012C0009F5798F0B92F9927B751B0F0E1F0660F0A
:1012D000771F881F991F1AF0BA95C9F714C0B1304B
:1012E00091F00E94370AB1E008950C94370A672FF5
:1012F000782F8827B85F39F0B93FCCF3869577957A
:101300006795B395D9F73EF4909580957095619562
:101310007F4F8F4F9F4F0895E89409C097FB3EF48D
:1013200090958095709561957F4F8F4F9F4F992332
:10133000A9F0F92F96E9BB279395F69587957795B0
:101340006795B795F111F8CFFAF4BB0F11F460FF70
:101350001BC06F5F7F4F8F4F9F4F16C0882311F0C8
:1013600096E911C0772321F09EE8872F762F05C0DC
:10137000662371F096E8862F70E060E02AF09A9577
:10138000660F771F881FDAF7880F9695879597F96C
:101390000895990F0008550FAA0BE0E8FEEF161606
:1013A0001706E807F907C0F012161306E407F50759
:1013B00098F0621B730B840B950B39F40A2661F0CD
:1013C000232B242B252B21F408950A2609F4A14070
:1013D000A6958FEF811D811D089597F99F6780E87D
:1013E00070E060E008959FEF80EC089500240A9477
:1013F0001616170618060906089500240A941216F0
:101400001306140605060895092E0394000C11F422
:10141000882352F0BB0F40F4BF2B11F460FF04C0CF
:101420006F5F7F4F8F4F9F4F089557FD9058440F28
:10143000551F59F05F3F71F04795880F97FB991F33
:1014400061F09F3F79F087950895121613061406F0
:10145000551FF2CF4695F1DF08C01616170618067D
:10146000991FF1CF86957105610508940895E89458
:10147000BB2766277727CB0197F908950E94C909F2
:1014800008F48FEF08950E94560A0C94040A0E94F3
:10149000F60938F00E94FD0920F0952311F00C9414
:1014A000ED090C94F30911240C94380A0E94150AD2
:1014B00070F3959FC1F3950F50E0551F629FF001A7
:1014C000729FBB27F00DB11D639FAA27F00DB11DC0
:1014D000AA1F649F6627B00DA11D661F829F222749
:1014E000B00DA11D621F739FB00DA11D621F839FD0
:1014F000A00D611D221F749F3327A00D611D231FA6
:10150000849F600D211D822F762F6A2F11249F57F3
:1015100050409AF0F1F088234AF0EE0FFF1FBB1FF6
:10152000661F771F881F91505040A9F79E3F5105B5
:1015300080F00C94ED090C94380A5F3FE4F3983E78
:10154000D4F3869577956795B795F795E7959F5F5F
:10155000C1F7FE2B880F911D9695879597F90895F1
:04156000F894FFCF2D
:1015640002230026002900250028002B0024002740
:10157400002A0002000302000457616C6C2D666FA0
:101584006C6C6F7765722076313320726561647993
:101594002E0D0A004C3D20523D20653D20573D2034
:1015A400454C3D2045523D20453D204C533D205265
:1015B400533D0D0A0043616C6962726174696E6720
:1015C4002073656E736F72732E2E2E0D0A00526592
:1015D4006164792E204C303D002052303D00205271
:1015E4003D0020653D0020573D0020454C3D002036
:1015F40045523D0020453D00204C533D00205253B0
:021604003D00A7
:00000001FF
