:100000000C9434000C9451000C9451000C94510049
:100010000C9451000C9451000C9451000C9451001C
:100020000C9451000C9451000C9451000C9451000C
:100030000C9451000C9451000C9499010C945100B3
:100040000C9451000C9451000C9451000C945100EC
:100050000C9451000C9451000C9451000C945100DC
:100060000C9451000C94510011241FBECFEFD8E026
:10007000DEBFCDBF11E0A0E0B1E0ECE5F6E002C0EC
:1000800005900D92A033B107D9F721E0A0E3B1E0CC
:1000900001C01D92A537B207E1F70E9440020C94FF
:1000A0002C030C940000CF92DF92EF92FF920F93FB
:1000B0001F93CF93DF93F62E98B101E010E0E80193
:1000C00001C0CC0F8A95EAF79C2B98B98AE090E0A2
:1000D0000E94FB0188B1C095C823C8B902C0000FB7
:1000E000111FFA94E2F730E020E086B190E080231F
:1000F0009123892B59F1C12CD12C760186B190E046
:1001000080239123892B81F08FEFC81AD80AE80A3F
:10011000F80A81E090E00E94FB0181E3C81685E7C0
:10012000D806E104F10451F7C701B6012AE330E033
:1001300040E050E00E940A03C901DF91CF911F9176
:100140000F91FF90EF90DF90CF9008952F5F3F4F7A
:10015000213385E7380749F690E080E0EECFEAE208
:10016000F0E08330910540F4880F991FFC01E45FB3
:10017000FE4F0190F081E02D81E090E001C0880FFA
:100180006A95EAF79081413019F4892B80830895AC
:1001900080958923FBCFEBE2F0E08330910540F4BA
:1001A000880F991FFC01EA5FFE4F0190F081E02D5E
:1001B00081E090E001C0880F6A95EAF790814130B4
:1001C00019F4892B8083089580958923FBCF0C94A3
:1001D000CB0021E030E001C0220F6A95EAF7E9E2A6
:1001E000F0E08330910540F4880F991FFC01E05046
:1001F000FF4F0190F081E02D20830895E9E2F0E0C7
:100200008330910540F4880F991FFC01E050FF4FA7
:100210000190F081E02D808190E002C09595879556
:100220006A95E2F781700895FC01EE0FFF1FE80F59
:10023000F91FEE5EFE4F6281808191810E94FE0077
:1002400091E0811190E0892F089540E063E082E021
:1002500090E00E94AF0040E063E082E090E00E9406
:10026000CB0040E064E082E090E00E94AF0040E01C
:1002700064E082E090E00C94CB008230910510F4B1
:100280000C94140181E00895CF9390E080E00E94E7
:100290001401C82F81E090E00E941401982F8C2F48
:1002A000CF9108958230910560F4FC01EE0FFF1F9D
:1002B000E80FF91FEE5EFE4F6281808191810C9400
:1002C000FE0080E008959B01AC0184E0220F331F03
:1002D000441F551F8A95D1F760E074E284EF90E0E7
:1002E0000E940A03215031093093C5002093C400B5
:1002F00088E18093C10086E08093C20008959091C8
:10030000C00095FFFCCF8093C6000895CF93DF9384
:10031000EC018991811103C0DF91CF9108950E9472
:100320007F01F7CF8091C00087FFFCCF8091C6008E
:1003300008951F920F920FB60F9211248F939F93DF
:10034000AF93BF938091710190917201A09173015D
:10035000B09174010196A11DB11D8093710190931C
:100360007201A0937301B0937401BF91AF919F91FB
:100370008F910F900FBE0F901F90189582E084BD53
:1003800099EF97BD80936E0093E095BD1092800029
:100390008093810010926F0008952FB7F8946091B8
:1003A00071017091720180917301909174012FBF5E
:1003B00008958F929F92AF92BF92CF92DF92EF9269
:1003C000FF926B017C010E94CD014B015C010E94F8
:1003D000CD01681979098A099B096C157D058E057F
:1003E0009F05A8F3FF90EF90DF90CF90BF90AF9064
:1003F0009F908F9008954091840050918500880FC0
:10040000991F2091840030918500241B350B2817FB
:100410003907B8F308958AB188648AB983EA80936A
:10042000B00084E08093B1001092B3001092B40049
:1004300008958093B40008958093B3000895CF93F6
:10044000C62F289A29982A9A2B980E9419028C2F35
:10045000CF910C941C020C941F020C941F0228983C
:1004600029982A982B9880E00E94190280E00C9429
:100470001C0284B18F6084B90E940B020C942F027D
:100480000E94BE0160E875E280E090E00E94630196
:100490000E94250187B1856187B987B1857D87B9BC
:1004A00088B18A7E88B90E943902789464EF71E03D
:1004B00080E090E00E94D90188E191E00E948601ED
:1004C000C2E5D0E00CE410E00E9444016C0161E060
:1004D00080E00E9453005C0163E082E00E945300D0
:1004E0007C0165E084E00E94530021E0A21AB1087B
:1004F00023E1A216B104C0F40E942F02D1101AC049
:1005000080917001803240F4E82FF0E0EE0FFF1F81
:10051000E05DFE4FD183C0838F5F8093700160E503
:1005200080EA0E942B0219C0C11026C0DD2049F1CB
:100530000E942F0280917001803240F4E82FF0E099
:10054000EE0FFF1FE05DFE4F118300838F5F8093EE
:10055000700160EA80E50E942D0266E272E080E0B0
:1005600090E00E94D9010E942F0262E370E080E0D7
:1005700090E00E94D901A8CFD1102AC00E942F027A
:10058000BFCF0E942F020E94CD016B017C010E940F
:10059000CD016C197D098E099F096C32714081056E
:1005A000910530F663E082E00E9453005C0165E053
:1005B00084E00E94530021E0A21AB10822E2A216B0
:1005C000B10418F00197829700F50E942F027CCFAA
:1005D0000097C1F00F97853091058CF48C3F9F4FA9
:1005E0008CF464EB80E591E0E91AF1082AE0E21668
:1005F000F10410F464EB80E50E941F0265CF60E512
:1006000084EBF1CF60EA80EAEECF60E580E50E94FE
:100610001F02BDCFA1E21A2EAA1BBB1BFD010DC0FC
:10062000AA1FBB1FEE1FFF1FA217B307E407F507A2
:1006300020F0A21BB30BE40BF50B661F771F881F7E
:10064000991F1A9469F760957095809590959B0114
:0C065000AC01BD01CF010895F894FFCF6C
:10065C00230026002900250028002B002400270059
:10066C002A0002000302000457616C6C2D666F6C4B
:10067C006C6F7765722072656164792E0D0A0000CB
:00000001FF
