:100000000C9434000C9451000C9451000C940A028E
:100010000C9451000C94C9010C9451000C945100A3
:100020000C9451000C9451000C9451000C94350325
:100030000C9451000C9451000C9451000C945100FC
:100040000C9451000C9451000C9451000C945100EC
:100050000C9451000C9451000C9451000C945100DC
:100060000C9451000C94510011241FBECFEFD8E026
:10007000DEBFCDBF12E0A0E0B1E0EAE2F8E102C0ED
:1000800005900D92AE33B107D9F722E0AEE3B2E0AE
:1000900001C01D92A337B207E1F70E94EE030C9452
:1000A000130C0C9400008FB7F89410924C0210922D
:1000B0004D0210924E0210924F021092480210927E
:1000C000490210924A0210924B028FBF08951F936B
:1000D000CF93DF931FB7F894C0918400D09185002F
:1000E0000E946D039B01AC01B19B07C0C430D105D8
:1000F00020F42F5F3F4F4F4F5F4F1FBFA8EEB3E07D
:100100000E94BB09D695C7956C0F7D1F811D911D5F
:10011000DF91CF911F910895CF92DF92EF92FF92DE
:100120000F931F93CF93DF93D82FC62F0E946D0399
:100130006B017C0101E010E002C0000F111FCA95A5
:10014000E2F786B190E080239123892B59F00E9439
:100150006D036C197D098E099F096A30710581054F
:10016000910578F388B121E030E0A90102C0440F85
:10017000551FDA95E2F7EA01842B88B90E946700DF
:100180006B017C010E9467006C197D098E099F0933
:100190006A30710581059105A8F388B1C095C8231F
:1001A000C8B90E946D036B017C0186B190E0802389
:1001B0009123892BC9F00E9467006B017C0186B1F5
:1001C00090E080239123892B29F50E9467006C1908
:1001D0007D098E099F0999F02AE330E040E050E064
:1001E0000E949909C9010DC00E946D036C197D0917
:1001F0008E099F096430710581059105B0F290E088
:1002000080E0DF91CF911F910F91FF90EF90DF90F1
:10021000CF9008950E9467006C197D098E099F098F
:1002200060347F418105910550F2E9CFEF92FF9252
:100230000F931F93CF93DF93F82EE62E0E948C002E
:10024000EC016E2D8F2D0E948C008C016E2D8F2D58
:100250000E948C000C171D0728F43C2F2D2FE8015D
:10026000032F122F9C010817190708F49801CE01DB
:10027000C217D30708F4C901DF91CF911F910F91E5
:10028000FF90EF900895EF92FF921F93CF93DF932B
:1002900000D000D000D01F92CDB7DEB797FF2BC0A3
:1002A00091958195910921E0E0E03AE0E32EF12C6F
:1002B00011E01E0F41E050E04C0F5D1F4E0F511D2D
:1002C000FA01B7010E948509805D8083CB01E12F8F
:1002D000009771F78DE2211127C011111DC02796DB
:1002E0000FB6F894DEBF0FBECDBFDF91CF911F9147
:1002F000FF90EF90089520E00097B1F680E32796F5
:100300000FB6F894DEBF0FBECDBFDF91CF911F9126
:10031000FF90EF900C941B031150E1E0F0E0EC0F24
:10032000FD1FE10FF11D80810E941B03D6CF1F939B
:10033000CF93DF9300D000D000D0CDB7DEB710E070
:100340002AE030E0009761F4111118C026960FB62C
:10035000F894DEBF0FBECDBFDF91CF911F910895FE
:10036000E1E0F0E0EC0FFD1FE10FF11DB9010E948B
:100370007109805D8083CB011F5FE4CF1150E1E004
:10038000F0E0EC0FFD1FE10FF11D80810E941B03C7
:10039000DBCF1F920F920FB60F9211244F935F93F2
:1003A0006F937F938F939F93AF93BF9389B19091F6
:1003B000470280934702982797FF1FC087FF1DC001
:1003C0004FEF5FEFBA0182FF04C041E050E060E010
:1003D00070E080914C0290914D02A0914E02B0913C
:1003E0004F02840F951FA61FB71F80934C02909356
:1003F0004D02A0934E02B0934F02BF91AF919F91D7
:100400008F917F916F915F914F910F900FBE0F90E1
:100410001F9018951F920F920FB60F9211244F93B1
:100420005F936F937F938F939F93AF93BF9383B1AA
:100430009091460280934602982794FF1FC084FF44
:100440001DC041E050E060E070E085FF03C04FEF69
:100450005FEFBA018091480290914902A0914A024F
:10046000B0914B02840F951FA61FB71F80934802BF
:1004700090934902A0934A02B0934B02BF91AF916F
:100480009F918F917F916F915F914F910F900FBED0
:100490000F901F901895EAE2F0E08330910540F448
:1004A000880F991FFC01E45FFE4F0190F081E02D61
:1004B00081E090E001C0880F6A95EAF790814130B1
:1004C00019F4892B8083089580958923FBCFEBE273
:1004D000F0E08330910540F4880F991FFC01EA5F3A
:1004E000FE4F0190F081E02D81E090E001C0880F87
:1004F0006A95EAF79081413019F4892B8083089539
:1005000080958923FBCF0C94670221E030E001C085
:10051000220F6A95EAF7E9E2F0E08330910540F4B2
:10052000880F991FFC01E050FF4F0190F081E02DF2
:1005300020830895E9E2F0E08330910540F4880FCC
:10054000991FFC01E050FF4F0190F081E02D808168
:1005500090E002C0959587956A95E2F781700895BD
:10056000FC01EE0FFF1FE80FF91FEE5EFE4F6281E8
:10057000808191810E949A0291E0811190E0892FFF
:10058000089540E063E082E090E00E944B0240E08A
:1005900063E082E090E00E94670240E064E082E075
:1005A00090E00E944B0240E064E082E090E00C9416
:1005B00067028230910510F40C94B00281E0089536
:1005C000CF9390E080E00E94B002C82F81E090E0DD
:1005D0000E94B002982F8C2FCF9108958230910500
:1005E00060F4FC01EE0FFF1FE80FF91FEE5EFE4FF7
:1005F0006281808191810C949A0280E008959B0130
:10060000AC0184E0220F331F441F551F8A95D1F798
:1006100060E074E284EF90E00E9499092150310972
:100620003093C5002093C40088E18093C10086E028
:100630008093C20008959091C00095FFFCCF8093F5
:10064000C6000895CF93DF93EC018991811103C017
:10065000DF91CF9108950E941B03F7CF8091C000D6
:1006600087FFFCCF8091C60008951F920F920FB6AE
:100670000F9211248F939F93AF93BF9380916F023A
:1006800090917002A0917102B09172020196A11D29
:10069000B11D80936F0290937002A0937102B0938A
:1006A0007202BF91AF919F918F910F900FBE0F90EB
:1006B0001F901895E1E8F0E088E080838FEC97E0E8
:1006C000909389008093880082E080936F008081FE
:1006D000826080831092800008952FB7F894609113
:1006E0006F027091700280917102909172022FBF1F
:1006F00008958F929F92AF92BF92CF92DF92EF9226
:10070000FF926B017C010E946D034B015C010E9412
:100710006D03681979098A099B096C157D058E0599
:100720009F05A8F3FF90EF90DF90CF90BF90AF9020
:100730009F908F9008954091840050918500880F7C
:10074000991F2091840030918500241B350B2817B8
:100750003907B8F308958AB180668AB983EA84BDFF
:1007600083E085BD17BC18BC089588BD089587BD7A
:100770000895CF93C62F289A29982A9A2B980E94D9
:10078000B5038C2FCF910C94B703CF93C62F289A23
:1007900029982A982B9A0E94B5038C2FCF910C94FC
:1007A000B703CF93C62F2898299A2A9A2B980E948C
:1007B000B5038C2FCF910C94B703289829982A98C9
:1007C0002B9880E00E94B50380E00C94B70384B1BD
:1007D0008F6084B90E94AB030C94DD03CF93DF9349
:1007E000CDB7DEB7A8970FB6F894DEBF0FBECDBF6A
:1007F0000E945A0360E875E280E090E00E94FF02E8
:1008000087B1856187B987B1857D87B988B18A7ECF
:1008100088B98AB18B778AB98BB184688BB984B176
:100820008F7C84B985B1806385B980916D008068C3
:1008300080936D0080916B00806180936B0080914C
:10084000680085608093680089B18093470283B116
:10085000809346020E94E7038AB1877E8AB98BB1F2
:10086000877E8BB9789488E191E00E9422038FE221
:1008700091E00E94220325E02B834FE050E05A8351
:1008800049835FE0252E312C63E082E00E9416014F
:100890008C0165E084E00E94160198012250310924
:1008A0002B33310508F418019C01225031092B33F8
:1008B000310510F49A8389835B8151505B83511118
:1008C000E3CF80E491E00E9422030E946D036B015C
:1008D0007C010E9453008AE088A7AEE1B0E0BF87A8
:1008E000AE87B1E0BD8721E02F83188619861A866E
:1008F0001B861C861C8E1D8E1E8E1F8E188E198EBA
:100900001A8E1B8E412C512C320110E000E031E098
:100910003B83C8010297029708F058C002301105C6
:1009200091F56EE686EE0E94C5030E946D034B01B1
:100930005C0184189508A608B70844EF841641E0C6
:100940009406A104B10428F361E080E00E948C00C9
:10095000009711F48FEF90E039B129B133FD18C041
:1009600024FB332730F921E02327849798F02111C5
:1009700020C044E8841643E09406A104B10448F280
:100980008EE691E018C066EE86E90E94D103CDCFD5
:1009900020E0EBCF54E8851653E09506A104B1049E
:1009A00008F4B7CF82E891E0222329F08DE591E0A9
:1009B00002C086E491E00E9422030E946D032B0195
:1009C0003C010E94530004E010E0A3CF0430110565
:1009D00059F562ED82ED0E94B9030E946D0364191E
:1009E0007509860997096A3F71058105910508F423
:1009F00090CF0E946D036B017C010E946D032B015F
:100A00003C0188E991E00E94220384E690E09F8700
:100A10008E8705E010E01B82A4E1B0E0BA83A983D1
:100A200044E1242E312C75CF63E082E005301105BE
:100A300009F0B5C00E948C005C0165E084E00E9472
:100A40008C009501225031092B33310508F4150132
:100A50009C01225031092B33310510F49A8389838C
:100A60008C84B101811003C0A980BA80B50190E0E7
:100A700080E00E94EF0A20E030E048E451E40E9468
:100A8000D50920E030E040E850E40E94A60B4B017D
:100A90005C0120E030E040E752E40E94A10B181610
:100AA0000CF476C020E030E040E752ECC501B40120
:100AB0000E94420A87FF06C0812C912C30E7A32EAA
:100AC00032ECB32E2C85211104C0B7FAB094B7F8DC
:100AD000B094C501B4010E94B90A24EB30E0261B92
:100AE000370B2F3F310519F014F02FEF30E02C3386
:100AF000310514F42CE330E0CB018C549F4F8F3F31
:100B0000910519F014F08FEF90E08C33910514F4F7
:100B10008CE390E0622F0E94B9030E946D03641978
:100B2000750986099709683572408105910508F4B1
:100B3000F0CE1092420210924302109244021092A0
:100B4000450210923E0210923F0210924002109213
:100B500041020E9453000E946D03688779878A874B
:100B60009B870E946D036B017C010E946D036C8F5B
:100B70007D8F8E8F9F8F82EA91E00E94220341E059
:100B80004D8751E05F8310E000E081E08B83C1CEB0
:100B9000812C912C20E7A22E22E4B22E93CF0E942A
:100BA0008C004C0165E084E00E948C005C0161E0F7
:100BB00080E00E948C00009729F08F3F910511F092
:100BC0009F878E87C4010297CB9778F4C40182195E
:100BD00093092814390418F0C10188199909079755
:100BE00018F09B81911101C01401C5010297CB97A8
:100BF00098F4A981BA81C5018A1B9B0BAA15BB0574
:100C000020F089819A818A199B09079718F0BB8186
:100C1000B11102C0BA82A9820E946D036B837C83EA
:100C20008D839E836C197D098E099F090E94EF0AAE
:100C30002FE632E143E85AE30E94A60B6C8B7D8BD2
:100C40008E8B9F8B2AE037ED43EA5BE30E94420ADA
:100C500087FF08C02AE037ED43EA5BE32C8B3D8B2E
:100C60004E8B5F8B38A5332369F0315038A762ED86
:100C700082ED0E94B903CB80DC80ED80FE8041E0F4
:100C80004B8347CE99B189B193FF4DC084FF4BC0D0
:100C90008E859F8584978B3D910508F044C051E077
:100CA000851A91088CE388169104E8F191E0A91A5D
:100CB000B108ACE3AA16B104B0F10E94DD0389EBE0
:100CC00091E00E94220380916E0290E00097A9F4C7
:100CD00080E30E941B0381EC91E00E94220380913B
:100CE0006E0288A4881660F08BE691E00E942203D1
:100CF00081ED91E00E942203FFCF0E949701EBCF8C
:100D000088A4882021F08EEC91E00E94220398A410
:100D1000E92DF0E0E05BFD4F80810E941B0328A5D8
:100D20002F5F28A7DCCF0E946D038C8C9D8CAE8C2E
:100D3000BF8C681979098A099B09643F7140810554
:100D4000910508F477C083E20115110509F074C01C
:100D50008E849F848815190408F472C00E946D0364
:100D6000688F798F8A8F9B8F0E946D036887798740
:100D70008A879B8784EE91E00E9422030E946D0384
:100D80006B017C01888C998CAA8CBB8CC818D90803
:100D9000EA08FB080E946D0339B121E0288B232F5C
:100DA000287033FD188A49B111E0342F307144FDA9
:100DB00010E08F809888891004C0AD84A11609F4D2
:100DC0007AC00E946D03688779878A879B8785EC44
:100DD000C81689E0D806E104F10408F47CC289B1A0
:100DE0004C9B9BC0E0916E02EE3148F481E08E0F87
:100DF00080936E02F0E0E05BFD4F8CE480830E9404
:100E00006D032B013C010E946D03688779878A87F7
:100E10009B878FEE91E00E9422031D8788888F8236
:100E20001C86CB80DC80ED80FE8003E010E021E0BA
:100E30002B836FCD8CE088CF0130110509F49ECF54
:100E4000B10190E080E00E94EF0A6B017C01A98073
:100E5000BA80B50190E080E00E94EF0A9B01AC01EE
:100E6000C701B6010E94D509688B798B8A8B9B8B51
:100E700020E030E040E05FE30E94A10B18160CF484
:100E80008DC020E030E040E05FEB688979898A8995
:100E90009B890E94420AC12CD12C760187FF8AC00F
:100EA00020E030E040E05FE3688979898A899B89A6
:100EB0000E94D6097DC088849984AA84BB8468195D
:100EC00079098A099B09603571058105910508F446
:100ED0007ECF332309F4DCC1211179CFE0916E027A
:100EE000EE3148F481E08E0F80936E02F0E0E05B1B
:100EF000FD4F8CE480830E946D032B013C0187EF42
:100F000091E00E9422031C86CB80DC80ED80FE8075
:100F100021E02F8303E010E0FACC83FF27C0E091AB
:100F20006E02EE3148F481E08E0F80936E02F0E0A5
:100F3000E05BFD4F82E580830E946D032B013C0145
:100F40000E946D03688779878A879B8780E092E09B
:100F50000E9422031D8788888F82CB80DC80ED80F1
:100F6000FE8021E02C8702E010E0D1CC62E382E336
:100F70000E94B90381E192E00E9422030E946D0366
:100F8000688F798F8A8F9B8F1D8788888F82CB800F
:100F9000DC80ED80FE8001E010E049CF20E030E011
:100FA00040E05FE3688979898A899B890E94D50935
:100FB0006B017C0120E030E040EE50E4C701B60157
:100FC0000E94A60B68A379A38AA39BA380904202E8
:100FD00090904302A0904402B09045022AE939E97A
:100FE00049E95EE3C501B4010E94A60B28A139A11D
:100FF0004AA15BA10E94D6096CA37DA38EA39FA3E7
:1010000020E030E046E952E40E94A10B87FD09C0D0
:1010100020E030E0A901C701B6010E94A10B18161B
:101020004CF120E030E046E952EC6CA17DA18EA1AC
:101030009FA10E94420A18164CF020E030E0A9015E
:10104000C701B6010E94420A87FD14C0A70196019C
:101050006C897D898E899F890E94A60BA5019401C8
:101060000E94D60960934202709343028093440227
:101070009093450220E030E048E452E4609142025F
:101080007091430280914402909145020E94A10B0D
:10109000181664F480E090E0A8E4B2E48093420281
:1010A00090934302A0934402B093450220E030E0C5
:1010B00048E452EC609142027091430280914402F4
:1010C000909145020E94420A87FF0CC080E090E0A8
:1010D000A8E4B2EC8093420290934302A0934402AE
:1010E000B093450220913E0230913F024091400270
:1010F00050914102C701B6010E94D5092C893D8952
:101100004E895F890E94470A4B015C01C0923E02F2
:10111000D0923F02E0924002F09241022AE939E97E
:1011200049E95EE36091420270914302809144027A
:10113000909145020E94A60B28A139A14AA15BA16A
:101140000E94D6096B017C012AE939E949E95EE38D
:10115000C501B4010E94A60B9B01AC01C701B601F9
:101160000E94D6096B017C0120E030E046E952E4A0
:101170000E94A10B18160CF481C020E030E046E973
:1011800052ECC701B6010E94420A87FF06C0C12C7B
:10119000D12C96E9E92E92ECF92E82ED0130110561
:1011A00009F480EAA82EB12CC701B6010E94B90A41
:1011B0006B01B5016C197D096F3F710519F014F0D1
:1011C0006FEF70E06C33710514F46CE370E0C501EF
:1011D0008C0D9D1D8F3F910519F014F08FEF90E05D
:1011E0008C33910514F48CE390E00E94B90382E201
:1011F00092E00E942203C1010E94430185E292E035
:101200000E94220389819A810E94430189E292E02F
:101210000E942203688979898A899B890E94B90A78
:10122000CB010E9443018DE292E00E942203C6019D
:101230000E94430181E392E00E9422038E859F85F4
:101240000E94430185E392E00E942203C8010E94AC
:10125000430189E392E00E94220380916E0290E0B4
:10126000009799F480E30E941B038BE691E00E94B3
:101270002203CB80DC80ED80FE8049CBC12CD12CB9
:1012800086E9E82E82E4F82E88CF0E949701EDCF00
:10129000222309F49CCDE0916E02EE3148F481E006
:1012A0008E0F80936E02F0E0E05BFD4F82E580835D
:1012B0000E946D032B013C0188E092E00E94220312
:1012C000CB80DC80ED80FE8041E04C8702E010E0C6
:1012D00051E05B831ECB1D8788888F8201E010E080
:1012E000AFCDAA1BBB1B51E107C0AA1FBB1FA6178E
:1012F000B70710F0A61BB70B881F991F5A95A9F7BF
:1013000080959095BC01CD01089597FB072E16F4AA
:10131000009407D077FD09D00E94710907FC05D021
:101320003EF4909581959F4F0895709561957F4FFC
:101330000895A1E21A2EAA1BBB1BFD010DC0AA1F16
:10134000BB1FEE1FFF1FA217B307E407F50720F02E
:10135000A21BB30BE40BF50B661F771F881F991FA9
:101360001A9469F760957095809590959B01AC01F2
:10137000BD01CF0108950E94C609A59F900DB49F9D
:10138000900DA49F800D911D11240895A29FB0017E
:10139000B39FC001A39F700D811D1124911DB29FA9
:1013A000700D811D1124911D08955058BB27AA2747
:1013B0000E94ED090C94670B0E94590B38F00E94B3
:1013C000600B20F039F49F3F19F426F40C94560B6F
:1013D0000EF4E095E7FB0C94500BE92F0E94780B7C
:1013E00058F3BA17620773078407950720F079F45A
:1013F000A6F50C949A0B0EF4E0950B2EBA2FA02DA7
:101400000B01B90190010C01CA01A0011124FF27B1
:10141000591B99F0593F50F4503E68F11A16F040AC
:10142000A22F232F342F4427585FF3CF46953795AB
:101430002795A795F0405395C9F77EF41F16BA0B70
:10144000620B730B840BBAF09150A1F0FF0FBB1F1E
:10145000661F771F881FC2F70EC0BA0F621F731F67
:10146000841F48F4879577956795B795F7959E3FC4
:1014700008F0B0CF9395880F08F09927EE0F979555
:10148000879508950E942C0B08F481E008950E942E
:101490005B0A0C94670B0E94600B58F00E94590B7A
:1014A00040F029F45F3F29F00C94500B51110C943B
:1014B0009B0B0C94560B0E94780B68F39923B1F3A5
:1014C000552391F3951B550BBB27AA27621773076A
:1014D000840738F09F5F5F4F220F331F441FAA1FFE
:1014E000A9F335D00E2E3AF0E0E832D091505040BA
:1014F000E695001CCAF72BD0FE2F29D0660F771F68
:10150000881FBB1F261737074807AB07B0E809F04D
:10151000BB0B802DBF01FF2793585F4F3AF09E3FD2
:10152000510578F00C94500B0C949B0B5F3FE4F347
:10153000983ED4F3869577956795B795F7959F5F15
:10154000C9F7880F911D9695879597F90895E1E061
:10155000660F771F881FBB1F621773078407BA07C0
:1015600020F0621B730B840BBA0BEE1F88F7E0951B
:1015700008950E94C00A6894B1110C949B0B0895C1
:101580000E94800B88F09F5798F0B92F9927B75188
:10159000B0F0E1F0660F771F881F991F1AF0BA9517
:1015A000C9F714C0B13091F00E949A0BB1E00895D0
:1015B0000C949A0B672F782F8827B85F39F0B93FC2
:1015C000CCF3869577956795B395D9F73EF49095CA
:1015D0008095709561957F4F8F4F9F4F0895E89448
:1015E00009C097FB3EF490958095709561957F4F6B
:1015F0008F4F9F4F9923A9F0F92F96E9BB27939519
:10160000F695879577956795B795F111F8CFFAF428
:10161000BB0F11F460FF1BC06F5F7F4F8F4F9F4F59
:1016200016C0882311F096E911C0772321F09EE8B7
:10163000872F762F05C0662371F096E8862F70E01D
:1016400060E02AF09A95660F771F881FDAF7880FF7
:101650009695879597F90895990F0008550FAA0B4D
:10166000E0E8FEEF16161706E807F907C0F01216B5
:101670001306E407F50798F0621B730B840B950BB8
:1016800039F40A2661F0232B242B252B21F408950D
:101690000A2609F4A140A6958FEF811D811D0895AA
:1016A00097F99F6780E870E060E008959FEF80EC15
:1016B000089500240A9416161706180609060895B8
:1016C00000240A9412161306140605060895092E1E
:1016D0000394000C11F4882352F0BB0F40F4BF2B8D
:1016E00011F460FF04C06F5F7F4F8F4F9F4F0895CD
:1016F00057FD9058440F551F59F05F3F71F04795C3
:10170000880F97FB991F61F09F3F79F087950895A7
:10171000121613061406551FF2CF4695F1DF08C0C6
:10172000161617061806991FF1CF869571056105E3
:1017300008940895E894BB2766277727CB0197F98B
:1017400008950E942C0B08F48FEF08950E94B90BA6
:101750000C94670B0E94590B38F00E94600B20F02C
:10176000952311F00C94500B0C94560B11240C94EF
:101770009B0B0E94780B70F3959FC1F3950F50E07F
:10178000551F629FF001729FBB27F00DB11D639F33
:10179000AA27F00DB11DAA1F649F6627B00DA11DD9
:1017A000661F829F2227B00DA11D621F739FB00D7F
:1017B000A11D621F839FA00D611D221F749F3327EF
:1017C000A00D611D231F849F600D211D822F762F88
:1017D0006A2F11249F5750409AF0F1F088234AF065
:1017E000EE0FFF1FBB1F661F771F881F91505040D1
:1017F000A9F79E3F510580F00C94500B0C949B0B65
:101800005F3FE4F3983ED4F3869577956795B79557
:10181000F795E7959F5FC1F7FE2B880F911D969571
:0A182000879597F90895F894FFCF1B
:10182A00230026002900250028002B002400270079
:10183A002A0002000302000457616C6C2D666F6C6B
:10184A006C6F7765722072656164792E0D0A0043A8
:10185A00616C6962726174696E672E2E2E0D0A00C0
:10186A00476F2E0D0A005475726E20646F6E6520E4
:10187A002849522B66726F6E74290D0A00547572CC
:10188A006E20646F6E6520284952290D0A0054752E
:10189A00726E20646F6E65202866726F6E74290DF1
:1018AA000A005475726E20646F6E65202874696D23
:1018BA00656F7574290D0A005265616C69676E0D52
:1018CA000A00526573756D696E672077616C6C2DBD
:1018DA00666F6C6C6F770D0A005475726E733A20DE
:1018EA00000D0A53657175656E63653A20002C20F8
:1018FA000053544F503A206F70656E2073706163C5
:10190A00650D0A00417070726F6163680D0A0054B8
:10191A00494D454F5554205475726E204C0D0A009E
:10192A0054494D454F5554205475726E20520D0A34
:10193A000054494D454F5554204241434B55500D93
:10194A000A004C3D0020523D0020653D0020573DD5
:0E195A000020463D0020533D0020543D00007B
:00000001FF
