:100000000C9434000C9451000C9451000C94310267
:100010000C9451000C94F0010C9451000C9451007C
:100020000C9451000C9451000C9451000C94A802B3
:100030000C9451000C9451000C9451000C945100FC
:100040000C9451000C9451000C9451000C945100EC
:100050000C9451000C9451000C9451000C945100DC
:100060000C9451000C94510011241FBECFEFD8E026
:10007000DEBFCDBF11E0A0E0B1E0E6E6F8E002C0EF
:1000800005900D92A83CB107D9F721E0A8ECB1E0AA
:1000900001C01D92A63DB207E1F70E9461030C94D6
:1000A00031040C9400004F925F926F927F92AF9256
:1000B000BF92CF92DF92EF92FF921F93CF93DF9385
:1000C000CDB7DEB72C970FB6F894DEBF0FBECDBF0D
:1000D0006B017C01F7FE41C08DE20E948E02F0941C
:1000E000E094D094C094C11CD11CE11CF11CA12C43
:1000F0008AE0482E512C612C712C11E01A0D81E000
:1001000090E08C0F9D1F8A0D911D5C01C701B60107
:10011000A30192010E941204605DF50160836901F0
:100120007A01A12EC114D104E104F10431F71111B7
:100130002FC02C960FB6F894DEBF0FBECDBFDF9157
:10014000CF911F91FF90EF90DF90CF90BF90AF9035
:100150007F906F905F904F900895C114D104E10497
:10016000F10429F680E32C960FB6F894DEBF0FBE9B
:10017000CDBFDF91CF911F91FF90EF90DF90CF9097
:10018000BF90AF907F906F905F904F900C948E02D5
:100190001150E1E0F0E0EC0FFD1FE10FF11D808157
:1001A0000E948E02C4CF4F925F926F927F928F9285
:1001B0009F92AF92BF92CF92DF92EF92FF92CF9336
:1001C000DF93CDB7DEB729970FB6F894DEBF0FBE29
:1001D000CDBF89878FB7F8941092CE011092CF01CE
:1001E0001092D0011092D1011092CA011092CB014D
:1001F0001092CC011092CD018FBF0E94E0022B0122
:100200003C012985222389F08FE691E00E94950226
:1002100066EE8EE60E94440388EC90E0A0E0B0E039
:1002200089839A83AB83BC8310C082E691E00E94ED
:1002300095026EE686EE0E94380320E931E040E048
:1002400050E029833A834B835C832FB7F894C090A6
:10025000CE01D090CF01E090D001F090D1018091FB
:10026000CA019091CB01A091CC01B091CD012FBFDB
:10027000F7FE08C0F094E094D094C094C11CD11C47
:10028000E11CF11CB7FF07C0B095A0959095819532
:100290009F4FAF4FBF4FC80ED91EEA1EFB1E0E94D4
:1002A000E0024B015C0184189508A608B708898113
:1002B0009A81AB81BC81C816D906EA06FB0644F4D4
:1002C00090ED891697E09906A104B10408F4BDCF1A
:1002D0000E9450038FB7F8944090CE015090CF0108
:1002E0006090D0017090D1012091CA013091CB0172
:1002F0004091CC015091CD012D833E834F8358878F
:100300008FBF398580E091E0332311F08DE091E0DB
:100310000E949502C701B6010E9453008AE191E054
:100320000E949502C501B4010E94530081E291E050
:100330000E94950284E291E00E949502C301B201FD
:1003400097FF07C090958095709561957F4F8F4F6F
:100350009F4F0E94530089E291E00E9495026D81B7
:100360007E818F81988597FF07C0909580957095C5
:1003700061957F4F8F4F9F4F0E94530040ED841631
:1003800047E09406A104B10468F089819A81AB81A9
:10039000BC81C816D906EA06FB0624F48DE291E07A
:1003A0000E9495028CEB91E00E94950260E273E05E
:1003B00080E090E029960FB6F894DEBF0FBECDBF67
:1003C000DF91CF91FF90EF90DF90CF90BF90AF90F3
:1003D0009F908F907F906F905F904F900C94EC0265
:1003E0001F920F920FB60F9211244F935F936F934A
:1003F0007F938F939F93AF93BF9389B19091C901DE
:100400008093C901982797FF1FC087FF1DC04FEF3A
:100410005FEFBA0182FF04C041E050E060E070E0AD
:100420008091CE019091CF01A091D001B091D101E6
:10043000840F951FA61FB71F8093CE019093CF0105
:10044000A093D001B093D101BF91AF919F918F91B3
:100450007F916F915F914F910F900FBE0F901F9002
:1004600018951F920F920FB60F9211244F935F931E
:100470006F937F938F939F93AF93BF9383B190912B
:10048000C8018093C801982794FF1FC084FF1DC036
:1004900041E050E060E070E085FF03C04FEF5FEFA8
:1004A000BA018091CA019091CB01A091CC01B09189
:1004B000CD01840F951FA61FB71F8093CA0190938B
:1004C000CB01A093CC01B093CD01BF91AF919F918F
:1004D0008F917F916F915F914F910F900FBE0F9011
:1004E0001F9018959B01AC0184E0220F331F441F1D
:1004F000551F8A95D1F760E074E284EF90E00E9486
:10050000F003215031093093C5002093C40088E1E5
:100510008093C10086E08093C20008959091C0004E
:1005200095FFFCCF8093C6000895CF93DF93EC0135
:100530008991811103C0DF91CF9108950E948E02AD
:10054000F7CF8091C00087FFFCCF8091C60008954F
:100550001F920F920FB60F9211248F939F93AF9318
:10056000BF938091D2019091D301A091D401B09119
:10057000D5010196A11DB11D8093D2019093D301A5
:10058000A093D401B093D501BF91AF919F918F916A
:100590000F900FBE0F901F901895E1E8F0E088E0F3
:1005A00080838FEC97E0909389008093880082E0AD
:1005B00080936F0080818260808310928000089514
:1005C0002FB7F8946091D2017091D3018091D4013A
:1005D0009091D5012FBF08958F929F92AF92BF92B5
:1005E000CF92DF92EF92FF926B017C010E94E002BA
:1005F0004B015C010E94E002681979098A099B0994
:100600006C157D058E059F05A8F3FF90EF90DF9098
:10061000CF90BF90AF909F908F90089540918400AD
:1006200050918500880F991F20918400309185009A
:10063000241B350B28173907B8F308958AB1806653
:100640008AB983EA84BD83E085BD17BC18BC0895D0
:1006500088BD089587BD0895CF93C62F289A2998FD
:100660002A9A2B980E9428038C2FCF910C942A034E
:10067000CF93C62F289A29982A982B9A0E9428034C
:100680008C2FCF910C942A03CF93C62F2898299AA8
:100690002A9A2B980E9428038C2FCF910C942A031E
:1006A000289829982A982B9880E00E94280380E0B7
:1006B0000C942A0384B18F6084B90E941E030C94A9
:1006C00050030E94CD0260E875E280E090E00E9455
:1006D00072028AB18B778AB98BB184688BB984B185
:1006E0008F7C84B985B1806385B980916D00806805
:1006F00080936D0080916B00806180936B0080918E
:10070000680085608093680089B18093C90183B1D6
:100710008093C8010E945A0378948DE791E00E946B
:10072000950284E991E00E94950260E971E080E021
:1007300090E00E9453008DE991E00E94950268ECE0
:1007400070E080E090E00E94530087EA91E00E9410
:10075000950266EE70E080E090E00E9453008FEA20
:1007600091E00E9495026EE670E080E090E00E94C9
:1007700053008CEB91E00E94950287EB91E00E9480
:10078000950266E986E90E942C036CED75E080E035
:1007900090E00E94EC020E9450036CE271E080E065
:1007A00090E00E94EC0280E00E94D3008FEB91E089
:1007B0000E94950266E986E90E942C036CED75E0C3
:1007C00080E090E00E94EC020E9450036CE271E035
:1007D00080E090E00E94EC0281E00E94D300CDCF47
:1007E000A1E21A2EAA1BBB1BFD010DC0AA1FBB1F35
:1007F000EE1FFF1FA217B307E407F50720F0A21BA7
:10080000B30BE40BF50B661F771F881F991F1A9413
:1008100069F760957095809590959B01AC01BD013D
:10082000CF010895052E97FB1EF400940E94290421
:1008300057FD07D00E94F00307FC03D04EF40C9440
:10084000290450954095309521953F4F4F4F5F4F6C
:10085000089590958095709561957F4F8F4F9F4F2C
:060860000895F894FFCF9B
:100866004C45465420207469636B733D00524947DA
:100876004854207469636B733D002074696D653D4F
:10088600006D730020204C3D0020523D00205B543B
:10089600494D454F555420E2809420696E63726538
:1008A600617365205455524E5F4F55544552206F23
:1008B6007220636865636B20656E636F646572732F
:1008C6005D005069766F74204C4546540D0A005001
:1008D60069766F742052494748540D0A007465734F
:1008E600745F6D6F746F725F63616C2072656164B3
:1008F600790D0A005449434B535F4C3D002054493F
:10090600434B535F523D00204F555445523D002006
:10091600494E4E45523D00465744204C0D0A00466E
:08092600574420520D0A0000A5
:00000001FF
