:100000000C9434000C9451000C9451000C94CC01CD
:100010000C9451000C948B010C9451000C945100E1
:100020000C9451000C9451000C9451000C94430218
:100030000C9451000C9451000C9451000C945100FC
:100040000C9451000C9451000C9451000C945100EC
:100050000C9451000C9451000C9451000C945100DC
:100060000C9451000C94510011241FBECFEFD8E026
:10007000DEBFCDBF12E0A0E0B1E0ECE5FBE002C0E6
:1000800005900D92AE37B107D9F722E0AEE7B2E0A6
:1000900001C01D92AC38B207E1F70E94FC020C943B
:1000A000AC050C9400000F931F934FB7F894809108
:1000B000840290918502A0918602B09187020091FE
:1000C00080021091810220918202309183024FBF01
:1000D000B7FF07C0B095A095909581959F4FAF4F02
:1000E000BF4F37FF07C030952095109501951F4FE2
:1000F0002F4F3F4FBC01CD01600F711F821F931F17
:100100001F910F9108951F93CF93DF931FB7F8941A
:10011000C0918400D09185000E947B029B01AC01BC
:10012000B19B07C0C430D10520F42F5F3F4F4F4F24
:100130005F4F1FBFA8EEB3E00E949205D695C7950A
:100140006C0F7D1F811D911DDF91CF911F9108952F
:10015000CF92DF92EF92FF920E947B026B017C01B3
:10016000319B0BC00E947B026C197D098E099F098F
:100170006A3071058105910598F3409A0E948300C9
:100180006B017C010E9483006C197D098E099F0917
:100190006A30710581059105A8F340980E947B02A1
:1001A0006B017C01319B15C00E9483006B017C01B7
:1001B000319921C00E9483006C197D098E099F0925
:1001C00099F02AE330E040E050E00E947005C90158
:1001D0000DC00E947B026C197D098E099F09643055
:1001E000710581059105F0F290E080E0FF90EF90BD
:1001F000DF90CF9008950E9483006C197D098E09CD
:100200009F0960347F418105910590F2EDCF0F93F6
:100210001F93CF93DF930E94A800EC016EE170E082
:1002200080E090E00E9487020E94A8008C016EE1AD
:1002300070E080E090E00E9487020E94A8000C1706
:100240001D0728F43C2F2D2FE801032F122F9C01AE
:100250000817190708F49801CE01C217D30708F44C
:10026000C901DF91CF911F910F9108958F929F92B5
:10027000AF92BF92EF92FF921F93CF93DF93CDB7D0
:10028000DEB72B970FB6F894DEBF0FBECDBF10E0E0
:100290003AE0832E912CA12CB12C611571058105BA
:1002A000910591F4111122C02B960FB6F894DEBF80
:1002B0000FBECDBFDF91CF911F91FF90EF90BF9008
:1002C000AF909F908F900895EE24E394F12CEC0E64
:1002D000FD1EE10EF11CA50194010E947005605DF8
:1002E000F7016083B901CA011F5FD7CF1150E1E068
:1002F000F0E0EC0FFD1FE10FF11D80810E9429024B
:10030000D1CF611571058105910519F480E30C9435
:1003100029020C9436011F920F920FB60F921124EE
:100320004F935F936F937F938F939F93AF93BF93FD
:1003300089B190917F0280937F02982797FF1FC019
:1003400087FF1DC04FEF5FEFBA0182FF04C041E09D
:1003500050E060E070E08091840290918502A0916D
:100360008602B0918702840F951FA61FB71F809346
:10037000840290938502A0938602B0938702BF9176
:10038000AF919F918F917F916F915F914F910F905E
:100390000FBE0F901F9018951F920F920FB60F92DD
:1003A00011244F935F936F937F938F939F93AF939A
:1003B000BF9383B190917E0280937E02982794FF31
:1003C0001FC084FF1DC041E050E060E070E085FF89
:1003D00003C04FEF5FEFBA018091800290918102DC
:1003E000A0918202B0918302840F951FA61FB71FB0
:1003F0008093800290938102A0938202B093830243
:10040000BF91AF919F918F917F916F915F914F912C
:100410000F900FBE0F901F9018959B01AC0184E0C8
:10042000220F331F441F551F8A95D1F760E074E2F5
:1004300084EF90E00E947005215031093093C5008F
:100440002093C40088E18093C10086E08093C200BD
:1004500008959091C00095FFFCCF8093C600089549
:10046000CF93DF93EC018991811103C0DF91CF918C
:1004700008950E942902F7CF8091C00087FFFCCF2A
:100480008091C60008951F920F920FB60F9211240B
:100490008F939F93AF93BF9380918802909189022D
:1004A000A0918A02B0918B020196A11DB11D80938B
:1004B000880290938902A0938A02B0938B02BF9125
:1004C000AF919F918F910F900FBE0F901F90189535
:1004D000E1E8F0E088E080838FEC97E0909389007A
:1004E0008093880082E080936F00808182608083A7
:1004F0001092800008952FB7F8946091880270914F
:10050000890280918A0290918B022FBF08958F9269
:100510009F92AF92BF92CF92DF92EF92FF926B01C8
:100520007C010E947B024B015C010E947B026819E6
:1005300079098A099B096C157D058E059F05A8F32D
:10054000FF90EF90DF90CF90BF90AF909F908F90F3
:1005500008954091840050918500880F991F209143
:10056000840030918500241B350B28173907B8F318
:1005700008958AB180668AB983EA84BD83E085BD27
:1005800017BC18BC089588BD089587BD0895CF9302
:10059000C62F289A29982A9A2B980E94C3028C2F3A
:1005A000CF910C94C502CF93C62F289A29982A98E8
:1005B0002B9A0E94C3028C2FCF910C94C502CF932B
:1005C000C62F2898299A2A9A2B980E94C3028C2F0A
:1005D000CF910C94C502289829982A982B9880E0EE
:1005E0000E94C30280E00C94C50284B18F6084B97C
:1005F0000E94B9020C94EB020E94680260E875E266
:1006000080E090E00E940D028AB18B778AB98BB1AD
:1006100084688BB984B18F7C84B985B1806385B9D6
:1006200080916D00806880936D0080916B00806187
:1006300080936B008091680085608093680089B129
:1006400080937F0283B180937E020E94F502389AE4
:10065000399840988AB1877E8AB98BB1877E8BB9E9
:10066000789480E091E00E94300283E191E00E9462
:10067000300260E971E080E090E00E9436018CE198
:1006800091E00E94300268E171E080E090E00E9419
:10069000360186E291E00E9430026AE070E080E07C
:1006A00090E00E94360184E891E00E943002212C03
:1006B000312CC12CD12C7601D0E0C0E002E310E057
:1006C000209709F049C00E9407015C014C0141E0FC
:1006D000841A910894EB792E85E488169104A8F485
:1006E0008CE3782E45E1A416B10478F095012451ED
:1006F000310944E6429FC001439F900D1124B80187
:100700000E945C0520E5722E760E672D872D0E94D3
:10071000C70287E391E00E943002B50190E080E0DB
:100720000E9481018EE391E00E943002672D70E00B
:1007300090E080E00E94810184E891E00E94300214
:100740008DE28816910408F0BBCF82E491E00E940C
:100750003002C1E0D0E0B4CFC130D10509F058C0BB
:100760000E9407015C0101978534910508F04EC095
:100770008CE345E1A416B10470F0950124513109D0
:1007800044E6429FC001439F900D1124B8010E948E
:100790005C0580E5860F682F0E94C70289B18870CA
:1007A000882E89B18071982E8DE491E00E943002EC
:1007B000B50190E080E00E94810184E591E00E9413
:1007C000300281E0811080E0805D0E94290289E58D
:1007D00091E00E94300281E0911080E0805D0E94F3
:1007E000290284E891E00E943002882009F44FC178
:1007F000911066CF0E947B026B017C018EE591E037
:100800000E943002212CC2E0D0E05ACF84EBC3CF4B
:10081000C230D10509F069C06CE38CE30E94C702C5
:100820000E9407015C010E947B022B013C014C18D5
:100830005D086E087F0882EB91E00E943002B501EE
:1008400090E080E00E94810189EB91E00E943002FB
:10085000C301B2010E94810184E891E00E9430024C
:1008600081E0A81AB1084AE0A416B10440F088EB70
:1008700048168BE058066104710408F421CF0E94E9
:10088000EB0248EB44164BE054066104710450F14E
:100890008AE0A816B10430F18DEB91E00E9430029D
:1008A0008FB7F894109284021092850210928602FB
:1008B000109287021092800210928102109282029E
:1008C000109283028FBF0E947B026B017C013394E4
:1008D000222009F4EAC08BE592E00E943002C4E0D5
:1008E000D0E0EECE81EE91E0D9CFC330D10509F052
:1008F00054C06EE686EE0E94D3020E9453002B0184
:100900003C010E947B024B015C018C189D08AE08E3
:10091000BF0840E9441641E054066104710444F400
:100920008CED881685E09806A104B10408F4C8CEC1
:100930000E94EB0288EF91E00E943002632D70E08C
:1009400090E080E00E9481018FEF91E00E943002F0
:10095000C301B2010E9481018DE092E00E94300249
:10096000C501B4010E94810184E192E00E9430023D
:100970004CED841645E09406A104B10408F45FC070
:1009800080E9481681E05806610471040CF057C0F4
:1009900087E192E00E94300252C0C430D10509F0D4
:1009A00055C066EE8EE60E94DF020E9453002B01C6
:1009B0003C010E947B024B015C018C189D08AE0833
:1009C000BF0848E1441641E054066104710444F450
:1009D0008CED881685E09806A104B10408F470CE69
:1009E0000E94EB0288EF91E00E943002632D70E0DC
:1009F00090E080E00E94810182E292E00E94300259
:100A0000C301B2010E9481018DE092E00E94300298
:100A1000C501B4010E94810184E192E00E9430028C
:100A20004CED841645E09406A104B10440F088E141
:100A3000481681E05806610471040CF4A9CF84E8DB
:100A400091E00E943002C5E0D0E03ACEC530D10539
:100A500009F036CE80E392E00E94300264EB84EB32
:100A60000E94C70268E572E080E090E00E94870281
:100A70000E94EB026CE271E080E090E00E9487024D
:100A800082E492E00E943002D0E0C0E019CE9920CA
:100A900009F416CE0E947B026B017C0187E891E08D
:100AA0000E94300222242394AECE8DE692E00E9472
:100AB0003002C3E0D0E004CEAA1BBB1B51E107C04B
:100AC000AA1FBB1FA617B70710F0A61BB70B881FDE
:100AD000991F5A95A9F780959095BC01CD0108956D
:100AE000A1E21A2EAA1BBB1BFD010DC0AA1FBB1F32
:100AF000EE1FFF1FA217B307E407F50720F0A21BA4
:100B0000B30BE40BF50B661F771F881F991F1A9410
:100B100069F760957095809590959B01AC01BD013A
:100B2000CF0108950E949D05A59F900DB49F900D43
:100B3000A49F800D911D11240895A29FB001B39F21
:100B4000C001A39F700D811D1124911DB29F700DD6
:0C0B5000811D1124911D0895F894FFCF21
:100B5C00746573745F7475726E73207265616479F9
:100B6C000D0A005449434B535F4C3D0020544943FC
:100B7C004B535F523D002046524F4E545F414C49FF
:100B8C00474E5F434D3D0046574420443D002053A3
:100B9C003D00417070726F6163680D0A00415052E4
:100BAC0020443D0020494C3D002049523D00495213
:100BBC003A206C656674206F70656E202D3E206344
:100BCC007265657020746F20616C69676E20284CAB
:100BDC00454654290D0A0049523A207269676874D7
:100BEC00206F70656E202D3E2063726565702074D9
:100BFC006F20616C69676E20285249474854290D53
:100C0C000A0043525020443D0020743D004372655D
:100C1C0065702074696D656F757420E28094207026
:100C2C0069766F74696E6720616E797761790D0AE8
:100C3C0000416C69676E656420E28094207069766F
:100C4C006F74696E670D0A005475726E2023002054
:100C5C004C45465420207469636B733D00207469C5
:100C6C006D653D006D7300205B54494D454F5554E7
:100C7C005D00205249474854207469636B733D00F2
:100C8C00506F73742D7475726E2062757273740D5F
:100C9C000A002D2D2D20726561647920666F7220FB
:100CAC006E657874202D2D2D0D0A003E3E3E205091
:100CBC0069766F742052494748540D0A003E3E3EF7
:0E0CCC00205069766F74204C4546540D0A0086
:00000001FF
