:100000000C9434000C9451000C9451000C94510049
:100010000C9451000C9451000C9451000C9451001C
:100020000C9451000C9451000C9451000C943F011D
:100030000C9451000C9451000C9451000C945100FC
:100040000C9451000C9451000C9451000C945100EC
:100050000C9451000C9451000C9451000C945100DC
:100060000C9451000C94510011241FBECFEFD8E026
:10007000DEBFCDBF11E0A0E0B1E0EEECF5E002C0E4
:1000800005900D92AE33B107D9F721E0AEE3B1E0B0
:1000900001C01D92A234B207E1F70E94F8010C944E
:1000A000E5020C9400001F93CF93DF931FB7F894E1
:1000B000C0918400D09185000E9477019B01AC0122
:1000C000B19B07C0C430D10520F42F5F3F4F4F4F85
:1000D0005F4F1FBFA8EEB3E00E94CB02D695C79535
:1000E0006C0F7D1F811D911DDF91CF911F91089590
:1000F000CF92DF92EF92FF920E9477016B017C0119
:10010000319B0BC00E9477016C197D098E099F09F4
:100110006A3071058105910598F3409A0E94530059
:100120006B017C010E9453006C197D098E099F09A7
:100130006A30710581059105A8F340980E94770106
:100140006B017C01319B15C00E9453006B017C0147
:10015000319921C00E9453006C197D098E099F09B5
:1001600099F02AE330E040E050E00E94A902C90182
:100170000DC00E9477016C197D098E099F096430BA
:10018000710581059105F0F290E080E0FF90EF901D
:10019000DF90CF9008950E9453006C197D098E095D
:1001A0009F0960347F418105910590F2EDCF1F9347
:1001B000CF93DF9300D000D000D0CDB7DEB710E0F2
:1001C0002AE030E0009761F4111118C026960FB6AE
:1001D000F894DEBF0FBECDBFDF91CF911F91089580
:1001E000E1E0F0E0EC0FFD1FE10FF11DB9010E940D
:1001F0009502805D8083CB011F5FE4CF1150E1E069
:10020000F0E0EC0FFD1FE10FF11D80810E94250140
:10021000DBCF9B01AC0184E0220F331F441F551F2D
:100220008A95D1F760E074E284EF90E00E94A90221
:10023000215031093093C5002093C40088E1809398
:10024000C10086E08093C20008959091C00095FFA0
:10025000FCCF8093C6000895CF93DF93EC01899182
:10026000811103C0DF91CF9108950E942501F7CF3E
:100270008091C00087FFFCCF8091C60008951F9237
:100280000F920FB60F9211248F939F93AF93BF934A
:1002900080913E0190913F01A0914001B0914101B8
:1002A0000196A11DB11D80933E0190933F01A09343
:1002B0004001B0934101BF91AF919F918F910F90F9
:1002C0000FBE0F901F901895E1E8F0E088E0808362
:1002D0008FEC97E0909389008093880082E0809370
:1002E0006F008081826080831092800008952FB714
:1002F000F89460913E0170913F018091400190918E
:1003000041012FBF08958F929F92AF92BF92CF92DB
:10031000DF92EF92FF926B017C010E9477014B010B
:100320005C010E947701681979098A099B096C159B
:100330007D058E059F05A8F3FF90EF90DF90CF908D
:10034000BF90AF909F908F900895409184005091FE
:100350008500880F991F2091840030918500241B0F
:10036000350B28173907B8F308958AB180668AB922
:1003700083EA84BD83E085BD17BC18BC089588BDA1
:10038000089587BD0895CF93C62F289A29982A9A51
:100390002B980E94BF018C2FCF910C94C101CF9359
:1003A000C62F289A29982A982B9A0E94BF018C2F31
:1003B000CF910C94C101CF93C62F2898299A2A9ADD
:1003C0002B980E94BF018C2FCF910C94C1012898CB
:1003D00029982A982B9880E00E94BF0180E00C9415
:1003E000C10184B18F6084B90E94B5010C94E7010A
:1003F0000E94640160E875E280E090E00E940901DB
:10040000389A399840980E94F101789485E191E0FA
:100410000E942C014EEBB42E58E2E52EF12C0E94E6
:100420007800EC016EE170E080E090E00E948301D2
:100430000E9478008C016EE170E080E090E00E9404
:1004400083010E9478000C171D0728F43C2F2D2FE4
:10045000E801032F122F9C010817190708F49801CF
:10046000C217D30708F4E901209709F440C0C63049
:10047000D10518F50E94E70130E0C32E31E0D32EFC
:1004800010E08FE291E00E942C01CE010E94D70083
:1004900082E391E00E942C01111142C080E30E948E
:1004A000250186E391E00E942C01C6010E942C01E7
:1004B00089E391E00E942C01B2CFCF31D10550F4F5
:1004C00064E184E10E94C30125E0C22E21E0D22E26
:1004D00014E1D7CFC634D10568F06AEF8AEF0E94E5
:1004E000C3019BE0C92E91E0D92E1AEFCACFCFEFFE
:1004F000D0E0F3CF9E012E513109B29EC001B39ED0
:10050000900D1124B7010E9495021CE3160F612F74
:10051000812F0E94C30180E1C82E81E0D82EB1CF87
:10052000812F90E00E94D700BCCFAA1BBB1B51E1DA
:1005300007C0AA1FBB1FA617B70710F0A61BB70B53
:10054000881F991F5A95A9F780959095BC01CD01F8
:100550000895A1E21A2EAA1BBB1BFD010DC0AA1F04
:10056000BB1FEE1FFF1FA217B307E407F50720F01C
:10057000A21BB30BE40BF50B661F771F881F991F97
:100580001A9469F760957095809590959B01AC01E0
:10059000BD01CF0108950E94D602A59F900DB49F82
:1005A000900DA49F800D911D11240895A29FB0016C
:1005B000B39FC001A39F700D811D1124911DB29F97
:0E05C000700D811D1124911D0895F894FFCF38
:1005CE0053544F500043524545500046554C4C0035
:1005DE00534C4F5700746573745F666F7277617218
:1005EE00645F736C6F772072656164790D0A0044E5
:0E05FE003D0020533D00205B005D0D0A000013
:00000001FF
